:040000000DEF00F010
:0400080058EF04F0B9
:10001800FF0062EF03F041EF01F0020E0701001943
:10002800D8A419EF00F01BEF00F05AEF01F0000E12
:10003800006F000E0D6EA2EF00F0410E0D6E000E67
:10004800246E060E256E180E266E050E276E000EFF
:10005800296E080E286ECAEC04F0080E0F6ED3EF56
:1000680000F0420E0D6E11C500F6000E0601016F7C
:10007800000E026F000E036F040E0F6ED3EF00F038
:10008800430E0D6E230E0601006F000E016F000E69
:10009800026F000E036F040E0F6ED3EF00F0440ED4
:1000A8000D6E23EF00F0500E0D6E660E0601006F08
:1000B800660E016F660E026F660E036F040E0F6EFA
:1000C800D3EF00F0510E0D6E000E0601006F05C74C
:1000D80001F606C702F6310E036F040E0F6ED3EF5A
:1000E80000F0520E0D6E320E0601006F320E016FD7
:1000F800320E026F320E036F040E0F6ED3EF00F054
:10010800530E0D6E300E0601006F320E016F320E67
:10011800026F320E036F040E0F6ED3EF00F0700EF5
:100128000D6E320E0601006F320E016F320E026F35
:10013800320E036F040E0F6ED3EF00F004513A6EC7
:100148003B6A3B50000AD8B4ACEF00F0D3EF00F0A4
:100158003A50410AD8B421EF00F0030AD8B435EF79
:1001680000F0010AD8B444EF00F0070AD8B453EFFE
:1001780000F0140AD8B457EF00F0010AD8B466EFBB
:1001880000F0030AD8B475EF00F0010AD8B484EF80
:1001980000F0230AD8B493EF00F0D3EF00F00D502D
:1001A800D8B4D9EF00F0DBEF00F05AEF01F0000E01
:1001B800256E000E246E800E276E050E266E000E2C
:1001C800286E060E296E0FC52AF52B6A210E2C6E95
:1001D800050E2D6E200E2E6E050E2F6E03EC03F00D
:1001E800000E0F24D96EDA6A060EDA22610084F452
:1001F800DFF40F2A000E0F24D96EDA6A060EDA220F
:10020800610080F4DFF40F2A000E0F24D96EDA6A39
:10021800060EDA22030EDF6E0F2A102A5AEF01F0BB
:10022800020EF7EC04F0040EF7EC04F0230EF7ECE2
:1002380004F0A30EF7EC04F00D508009F7EC04F07D
:10024800000E0E6E11EF01F00F500E5CD8B02FEFBC
:1002580001F031EF01F03DEF01F0000E0E24D96EF0
:10026800DA6A060EDA22DF50F7EC04F00E2A5AEFAB
:1002780001F0000E106E5AEF01F010503A6E3B6A12
:100288003B50000AD8B44BEF01F05AEF01F03A5056
:10029800000AD8B411EF00F0010AD8B414EF01F045
:1002A800030AD8B428EF01F05AEF01F012003D6EAE
:1002B8000C50D8B462EF01F064EF01F0FDEF01F0EB
:1002C800060E0C18D8B46BEF01F06DEF01F0FDEFDE
:1002D80001F0070E0C18D8B474EF01F076EF01F0B6
:1002E800FDEF01F00A0E0C18D8B47DEF01F07FEF96
:1002F80001F0FDEF01F0020E3D18D8A486EF01F0E1
:1003080088EF01F0FDEF01F0000E0C6EFDEF01F03B
:10031800020E3D18D8A493EF01F095EF01F032EFEB
:1003280002F0000E0B6E0C2A32EF02F03DC50AF502
:100338000A50D8B4A2EF01F0A4EF01F0ACEF01F03D
:10034800F00E0A64AAEF01F0ACEF01F097EF01F0AC
:10035800000E0C6E32EF02F03DC509F5200E0918AB
:10036800D8B4B9EF01F0BBEF01F097EF01F0ACEFB3
:1003780001F03DC508F5230E0818D8B4C6EF01F002
:10038800C8EF01F097EF01F0ACEF01F03DC507F5BC
:10039800400E0760D2EF01F0D4EF01F0D6EF01F084
:1003A800ACEF01F0000E066E97EF01F0000E062488
:1003B800D96EDA6A0B0EDA226100F4F4DFF4062A49
:1003C8000A50065CD8A0EBEF01F0EDEF01F032EF38
:1003D80002F097EF01F03DC505F597EF01F03DC537
:1003E80004F597EF01F03DC503F50A0E0C6E32EFE8
:1003F80002F00C503A6E3B6A3B50000AD8B407EF43
:1004080002F032EF02F03A50000AD8B48CEF01F053
:10041800010AD8B49AEF01F0030AD8B4B0EF01F09A
:10042800010AD8B4BDEF01F0070AD8B4CAEF01F049
:10043800010AD8B4DAEF01F0030AD8B4EFEF01F0FB
:10044800010AD8B4F3EF01F00F0AD8B4F7EF01F0BE
:10045800020AD8B432EF02F032EF02F00C50D8B4EE
:1004680038EF02F03AEF02F04DEF02F00A0E0C18E6
:10047800D8B441EF02F043EF02F04DEF02F0000E66
:100488000B24D96EDA6A0C0EDA226100F4F4DFF478
:100498000B2A0A0E0C18D8A454EF02F056EF02F0FB
:1004A800A0EF02F007010051D8A45DEF02F05FEF62
:1004B80002F0A0EF02F0020E006F0AC501F709C5AD
:1004C80002F708C503F707C504F7000E3C6E7CEF7A
:1004D80002F0000E3C24D96EDA6A0B0EDA22050E01
:1004E8003C24E16EE26A070EE222DFC4E7F43C2A0C
:1004F8000A503C5CD8A083EF02F085EF02F06DEF64
:1005080002F0000E256E000E246E800E276E050E7A
:10051800266E050E286E070E296E01C72AF52B6A6E
:10052800F50E2C6E070E2D6EF60E2E6E070E2F6E24
:1005380003EC03F0000E0C6E1200000E1524D96EA9
:10054800DA6A080EDA22000EDF6E0201FEA7AFEFAC
:1005580002F0B1EF02F0C6EF02F0000E1524D96EDA
:10056800DA6A080EDA220801DF8202D8C6EF02F042
:100578000500FA6E4650FD6E4750FE6E4850FF6EFD
:10058800FA5012000201FEA3CCEF02F0CEEF02F007
:10059800E3EF02F0000E1524D96EDA6A080EDA22AB
:1005A8000801DF8402D8E3EF02F00500FA6E435039
:1005B800FD6E4450FE6E4550FF6EFA501200000E5C
:1005C8001524D96EDA6A080EDA22DF50D8B4EFEFB4
:1005D80002F0F1EF02F000EF03F002D8FEEF02F0B4
:1005E8000500FA6E4050FD6E4150FE6E4250FF6E9F
:1005F800FA50120002EF03F06DEC05F0120024C56A
:1006080038F525C539F5000E026E000E016E000E94
:10061800376E3DEF03F037502824D96E000E29209D
:10062800DA6EDF50306E3050326E336A3250381A1C
:100638003350391A000E366E38A025EF03F027EF35
:1006480003F030EF03F0D890393238322650381A98
:100658002750391A33EF03F0D89039323832362A16
:10066800070E36643AEF03F03CEF03F020EF03F097
:10067800372A3750306E316A2A50305C2B50315847
:10068800D8A049EF03F04BEF03F00FEF03F038C5A4
:1006980035F53950346E6100B0F4D9F46100B4F422
:1006A800DAF46100D0F4DFF46100B8F4D9F4610041
:1006B800BCF4DAF46100D4F4DFF41200EA0EF66E4A
:1006C8000B0EF76E000EF86E09006100D4F350F5BA
:1006D80003EE00F010EEFFF0EE6AE550E150FCE1A9
:1006E800E250FAE102EE00F310EEFFF0EE6AE55098
:1006F800E150FCE1E250FAE102EE00F210EEFFF008
:10070800EE6AE550E150FCE1E250FAE102EE00F158
:1007180010EEFFF0EE6AE550E150FCE1E250FAE13C
:1007280002EE00F010EEFFF0EE6AE550E150FCE159
:10073800E250FAE101EE00F3F80EEE6AE806FDE198
:1007480001EE00F2F00EEE6AE806FDE101EE01F1BD
:10075800210EEE6AE806FDE10401080E5D6F000E49
:100768005E6F000E5F6F00019DEF04F0AB90420ECC
:10077800246E050E256E000E266ED2EC05F0AB92A7
:10078800980E246E0A0E256E000E266ECBEC05F030
:10079800000E0201F16F000EF36F000EF56FB00E40
:1007A800F76F800EF86F000EF96F440EFA6F000EA7
:1007B800FB6F000EFC6F000EFD6F000EFE6F000E4B
:1007C800FF6FE80E246E0B0E256E000E266EE0EC11
:1007D80005F0E60E246E0B0E256E000E266ED9EC83
:1007E80005F0DC0E246E0B0E256E000E266EE7EC6F
:1007F80005F0000E126E000E176E000E166E4F6892
:10080800000E156E000E146E000E136EAB801200F3
:10081800000EC26E000EC16E000EBE6E000EBF6EE0
:10082800000EC06E070ECA6EC668FE0EC76EDF0EDB
:10083800C86EC96804011869DF0E106FFE0E086FD4
:10084800070E206FDF0E006F000E196F000E216F6C
:10085800000E096F000E016F000E116F000E0201ED
:10086800896F000E886F000E876F000E866F000E6E
:100878000401226F000E026F000E0A6F000E126F45
:10088800000E1A6F03690B6913691B69070E236F42
:1008980004690C6914691C690F0E246F050E0201A6
:1008A8007A6F2C0E166F12006100E8F322F56100D2
:1008B800ECF323F5ABA263EF04F065EF04F07BEFF4
:1008C80004F0BBA26AEF04F06CEF04F07BEF04F0D5
:1008D80002D879EF04F00500FA6E4950FD6E4A50CF
:1008E800FE6E4B50FF6EFA50120096EF04F0ABA06C
:1008F80080EF04F082EF04F096EF04F0BBA087EFDE
:1009080004F089EF04F096EF04F002D896EF04F0B3
:100918000500FA6E4C50FD6E4D50FE6E4E50FF6E47
:10092800FA50120061008CF4FBF4610088F4FAF4C8
:100938001100C0EC05F0D68E014A022A82EC05F0BF
:1009480002BEB0EF04F0310E015C750E0258D8A05B
:10095800B0EF04F0B2EF04F0A0EF04F0000E026E66
:10096800000E016EBFB0BBEF04F0BEEF04F0010E45
:10097800BFEF04F0000EFF0A3F6EBF503F18FE0B9A
:100988003F18BF6EA0EF04F00DEF00F026C52CF560
:1009980027C52DF524C52AF525C52BF5E9EF04F063
:1009A8006100B0F4D9F46100B4F4DAF4DF502E6ECB
:1009B8002C4A2D2A6100A8F4D9F46100ACF4DAF4C9
:1009C8006100B8F4DFF42A4A2B2A2806D8A02906A1
:1009D800282806E12928D8A4F4EF04F0F6EF04F05B
:1009E800D4EF04F01200246E4F50D8B4FEEF04F098
:1009F80000EF05F0F8EF04F0ABB205EF05F007EFF4
:100A080005F00CEF05F0610090F4EFF222EF05F02D
:100A1800AB92000E1724D96EDA6A090EDA22610049
:100A280090F4DFF4172A1728D8A41DEF05F01FEF5C
:100A380005F021EF05F0000E176E4F06AB8212008D
:100A48001350D8B42AEF05F02CEF05F024EF05F089
:100A5800000E1424D96EDA6A080EDA22DF50126EFC
:100A6800000E1424D96EDA6A0A0EDA22DF50246ED8
:100A7800142A1428D8A443EF05F045EF05F047EFF2
:100A880005F0000E146EAB901306AB8024501200D4
:100A98004F28D8B452EF05F054EF05F06BEF05F08E
:100AA800000E1624D96EDA6A090EDA22DF50020126
:100AB800EF6F162A1628D8A464EF05F066EF05F044
:100AC80068EF05F0000E166E4F2A6CEF05F0AB923A
:100AD8001200000E1524D96EDA6A0A0EDA22EDC267
:100AE800DFF4152A1528D8A47CEF05F07EEF05F071
:100AF80080EF05F0000E156E132A1200B5EC05F014
:100B08000009D8B48AEF05F08CEF05F092EF05F0F4
:100B180024EC05F03E6E3E505BEC01F00FEC00F06B
:100B28001200000E0001606F000E616F000E636F0F
:100B3800000E646F000E656F000E666F000E676F23
:100B4800000E686F1200600E0001AD6F000EAF6FEF
:100B5800000EB36F060EB16F000EB06F000EAC6FD3
:100B680012001350D8A4BBEF05F0BEEF05F0010E3C
:100B7800BFEF05F0000E1200F1EC05F095EC05F062
:100B88000CEC04F0A7EC05F0BAEC03F0120024C555
:100B980049F525C54AF526C54BF5120024C54CF57F
:100BA80025C54DF526C54EF5120024C543F525C5C6
:100BB80044F526C545F5120024C546F525C547F573
:100BC80026C548F5120024C540F525C541F526C5BA
:100BD80042F512006DEC05F01200D69A12001200D0
:030BE800120023D5
:020000040020DA
:10000000FF0FFF0FFF0FFF0FFF0FFF0FFF0FFF0F80
:10001000FF0FFF0FFF0FFF0FFF0FFF0FFF0FFF0F70
:020000040030CA
:0A000000ECFFF7FF9FFFFFFFFFFF7B
:00000001FF
