:040000000DEF00F010
:040008005DEF01F0B7
:10001800FF0005EF02F0010E2024D96EDA6A050E02
:10002800DA22000EDF6E0201FEA71DEF00F01FEFBF
:1000380000F033EF00F0010E2024D96EDA6A050EC5
:10004800DA22DF8202D833EF00F00500FA6E27507B
:10005800FD6E2850FE6EF850FF6EFA501200020135
:10006800FEA339EF00F03BEF00F04FEF00F0010E78
:100078002024D96EDA6A050EDA22DF8402D84FEF1F
:1000880000F00500FA6E2550FD6E2650FE6EF85001
:10009800FF6EFA501200010E2024D96EDA6A050E9E
:1000A800DA22DF50D8B45BEF00F05DEF00F06CEFC0
:1000B80000F002D86AEF00F00500FA6E2350FD6EDA
:1000C8002450FE6EF850FF6EFA5012006EEF00F0EA
:1000D800F0EC01F01B4A1C2A120037EC02F0D68E15
:1000E800194A1A2A1ABE82EF00F0310E195C750EF1
:1000F8001A58D8A082EF00F084EF00F074EF00F0F7
:10010800000E1A6E000E196EBFB08DEF00F090EF62
:1001180000F0010E91EF00F0000EFF0A326EBF50A2
:100128003218FE0B3218BF6E1CBEA3EF00F01C5035
:1001380008E11B04D8A0A3EF00F0A5EF00F074EFCE
:1001480000F0020EA2EC01F0000EA2EC01F0010E8C
:10015800A2EC01F0200EA2EC01F0500EA2EC01F08E
:10016800AA0EA2EC01F0000EA2EC01F0000EA2EC27
:1001780001F0030EA2EC01F0000E1C6E000E1B6EC7
:1001880074EF00F00DEF00F0000EC26E000EC16EAD
:10019800000EBE6E000EBF6E000EC06E070ECA6E59
:1001A800C668FE0EC76EDF0EC86EC96804011869FE
:1001B800DF0E106FFE0E086F070E206FDF0E006F48
:1001C800000E196F000E216F000E096F000E016FEF
:1001D800000E116F000E0201896F000E886F000E6D
:1001E800876F000E866F000E0401226F000E026FEB
:1001F800000E0A6F000E126F000E1A6F03690B696A
:1002080013691B69070E236F04690C6914691C695B
:100218000F0E246F050E02017A6F2C0E166F120056
:10022800AB901E0E306E000E316E47EC02F0AB92B2
:100238009E0E306E030E316E42EC02F0000E02018B
:10024800F16F000EF36F000EF56FB00EF76F800EB2
:10025800F86F000EF96F440EFA6F000EFB6F000E78
:10026800FC6F000EFD6F000EFE6F000EFF6FC20EDA
:10027800306E040E316E51EC02F0C00E306E040E7A
:10028800316E4CEC02F0B60E306E040E316E56EC48
:1002980002F0000E1D6E000E226E000E216E080E7A
:1002A8002D6E000E206E000E1F6E000E1E6EAB80AF
:1002B80012006100E8F32EF56100ECF32FF5ABA214
:1002C80068EF01F06AEF01F080EF01F0BBA26FEF79
:1002D80001F071EF01F080EF01F002D87EEF01F03C
:1002E8000500FA6E2950FD6E2A50FE6EF850FF6E1A
:1002F800FA5012009BEF01F0ABA085EF01F087EFF9
:1003080001F09BEF01F0BBA08CEF01F08EEF01F044
:100318009BEF01F002D89BEF01F00500FA6E2B501D
:10032800FD6E2C50FE6EF850FF6EFA501200610000
:10033800BCF4FBF46100B8F4FAF41100306E2D50EF
:10034800D8B4A9EF01F0ABEF01F0A3EF01F0ABB225
:10035800B0EF01F0B2EF01F0B7EF01F06100C0F4C7
:10036800EFF2CDEF01F0AB92110E2224D96EDA6ACA
:10037800050EDA226100C0F4DFF4222A070E226497
:10038800C8EF01F0CAEF01F0CCEF01F0000E226EC9
:100398002D06AB821200080E2D60D5EF01F0D7EFC5
:1003A80001F0EEEF01F0110E2124D96EDA6A050E84
:1003B800DA22DF500201EF6F212A070E2164E7EFEE
:1003C80001F0E9EF01F0EBEF01F0000E216E2D2AAC
:1003D800EFEF01F0AB921200090E2024D96EDA6A11
:1003E800050EDA22EDC2DFF4202A070E2064FFEFA3
:1003F80001F001EF02F003EF02F0000E206E1E2A5A
:10040800120001EE01F1220EEE6AE806FDE1040198
:10041800080E5D6F000E5E6F000E5F6F000EF86EC7
:10042800000171EF00F0000E0001606F000E616FB7
:10043800000E636F000E646F000E656F000E666F2E
:10044800000E676F000E686F1200600E0001AD6F3E
:10045800000EAF6F000EB36F060EB16F000EB06FD7
:10046800000EAC6F12005EEC02F017EC02F0C8EC64
:1004780000F029EC02F014EC01F0120030C529F567
:1004880031C52AF5120030C52BF531C52CF51200FF
:1004980030C525F531C526F5120030C527F531C51B
:1004A80028F5120030C523F531C524F51200F0EC0B
:0C04B80001F01200D69A1200120012008F
:020000040020DA
:10000000FF0FFF0FFF0FFF0FFF0FFF0FFF0FFF0F80
:10001000FF0FFF0FFF0FFF0FFF0FFF0FFF0FFF0F70
:020000040030CA
:0A000000ECFFF7FF9FFFFFFFFFFF7B
:00000001FF
