:040000000DEF00F010
:0400080004EF01F010
:10001800FF00DAEF01F0010E1E24D96EDA6A050E30
:10002800DA22000EDF6E0201FEA71DEF00F01FEFBF
:1000380000F033EF00F0010E1E24D96EDA6A050EC7
:10004800DA22DF8202D833EF00F00500FA6E25507D
:10005800FD6E2650FE6EF850FF6EFA501200020137
:10006800FEA339EF00F03BEF00F04FEF00F0010E78
:100078001E24D96EDA6A050EDA22DF8402D84FEF21
:1000880000F00500FA6E2350FD6E2450FE6EF85005
:10009800FF6EFA501200010E1E24D96EDA6A050EA0
:1000A800DA22DF50D8B45BEF00F05DEF00F06CEFC0
:1000B80000F002D86AEF00F00500FA6E2150FD6EDC
:1000C8002250FE6EF850FF6EFA5012006EEF00F0EC
:1000D800C5EC01F01200000EC26E000EC16E000EDB
:1000E800BE6E000EBF6E000EC06E070ECA6EC668EA
:1000F800FE0EC76EDF0EC86EC96804011869DF0EF0
:10010800106FFE0E086F070E206FDF0E006F000ED7
:10011800196F000E216F000E096F000E016F000E9F
:10012800116F000E0201896F000E886F000E876F35
:10013800000E866F000E0401226F000E026F000E83
:100148000A6F000E126F000E1A6F03690B691369AC
:100158001B69070E236F04690C6914691C690F0E6B
:10016800246F050E02017A6F2C0E166F1200AB90E9
:100178001E0E2E6E000E2F6E1CEC02F0AB92480E77
:100188002E6E030E2F6E17EC02F0000E0201F16FB7
:10019800000EF36F000EF56FB00EF76F800EF86F5C
:1001A800000EF96F440EFA6F000EFB6F000EFC6F25
:1001B800000EFD6F000EFE6F000EFF6F6C0E2E6EB0
:1001C800040E2F6E26EC02F06A0E2E6E040E2F6EB1
:1001D80021EC02F0600E2E6E040E2F6E2BEC02F056
:1001E800000E1B6E000E206E000E1F6E080E2B6E8A
:1001F800000E1E6E000E1D6E000E1C6EAB801200EF
:100208006100E8F32CF56100ECF32DF5ABA20FEFDC
:1002180001F011EF01F027EF01F0BBA216EF01F09A
:1002280018EF01F027EF01F002D825EF01F00500E3
:10023800FA6E2750FD6E2850FE6EF850FF6EFA5089
:10024800120042EF01F0ABA02CEF01F02EEF01F00D
:1002580042EF01F0BBA033EF01F035EF01F042EFC0
:1002680001F002D842EF01F00500FA6E2950FD6E48
:100278002A50FE6EF850FF6EFA5012006100B4F476
:10028800FBF46100B0F4FAF411000CEC02F0D68E25
:10029800194A1A2A1ABE5AEF01F0310E195C750E66
:1002A8001A58D8A05AEF01F05CEF01F04CEF01F0BA
:1002B800000E1A6E000E196EBFB065EF01F068EF00
:1002C80001F0010E69EF01F0000EFF0A306EBF5019
:1002D8003018FE0B3018BF6E610E77EC01F04CEF52
:1002E80001F00DEF00F02E6E2B50D8B47EEF01F028
:1002F80080EF01F078EF01F0ABB285EF01F087EF06
:1003080001F08CEF01F06100B8F4EFF2A2EF01F018
:10031800AB92110E2024D96EDA6A050EDA2261003A
:10032800B8F4DFF4202A070E20649DEF01F09FEF58
:1003380001F0A1EF01F0000E206E2B06AB82120037
:10034800080E2B60AAEF01F0ACEF01F0C3EF01F04B
:10035800110E1F24D96EDA6A050EDA22DF50020167
:10036800EF6F1F2A070E1F64BCEF01F0BEEF01F00C
:10037800C0EF01F0000E1F6E2B2AC4EF01F0AB9204
:100388001200090E1E24D96EDA6A050EDA22EDC2B1
:10039800DFF41E2A070E1E64D4EF01F0D6EF01F039
:1003A800D8EF01F0000E1E6E1C2A120001EE01F1BA
:1003B800200EEE6AE806FDE10401080E5D6F000EEE
:1003C8005E6F000E5F6F000EF86E000149EF01F0DE
:1003D800000E0001606F000E616F000E636F000E6B
:1003E800646F000E656F000E666F000E676F000E7B
:1003F800686F1200600E0001AD6F000EAF6F000E47
:10040800B36F060EB16F000EB06F000EAC6F120026
:1004180033EC02F0ECEC01F06FEC00F0FEEC01F0D4
:10042800BBEC00F012002EC527F52FC528F51200E9
:100438002EC529F52FC52AF512002EC523F52FC57F
:1004480024F512002EC525F52FC526F512002EC558
:1004580021F52FC522F51200C5EC01F01200D69A3D
:0604680012001200120058
:020000040020DA
:10000000FF0FFF0FFF0FFF0FFF0FFF0FFF0FFF0F80
:10001000FF0FFF0FFF0FFF0FFF0FFF0FFF0FFF0F70
:020000040030CA
:0A000000ECFFF7FF9FFFFFFFFFFF7B
:00000001FF
