:040000000DEF00F010
:040008006DEF03F0A5
:10001800FF00D3EF02F01C6E2A50D8B416EF00F0A0
:1000280018EF00F0B1EF00F0060E2A18D8B41FEF51
:1000380000F021EF00F0B1EF00F0070E2A18D8B455
:1000480028EF00F02AEF00F0B1EF00F00A0E2A18AE
:10005800D8B431EF00F033EF00F0B1EF00F0020E4A
:100068001C18D8A43AEF00F03CEF00F0B1EF00F014
:10007800000E2A6EB1EF00F0020E1C18D8A447EF4C
:1000880000F049EF00F0E6EF00F0000E296E2A2A92
:10009800E6EF00F01CC528F52850D8B456EF00F05C
:1000A80058EF00F060EF00F0F00E28645EEF00F00B
:1000B80060EF00F04BEF00F0000E2A6EE6EF00F064
:1000C8001CC527F5200E2718D8B46DEF00F06FEF88
:1000D80000F04BEF00F060EF00F01CC526F5230E92
:1000E8002618D8B47AEF00F07CEF00F04BEF00F060
:1000F80060EF00F01CC525F5400E256086EF00F086
:1001080088EF00F08AEF00F060EF00F0000E246E38
:100118004BEF00F0000E2424D96EDA6A0B0EDA22B7
:10012800610070F4DFF4242A2850245CD8A09FEFE3
:1001380000F0A1EF00F0E6EF00F04BEF00F01CC577
:1001480023F54BEF00F01CC522F54BEF00F01CC562
:1001580021F50A0E2A6EE6EF00F02A50196E1A6A87
:100168001A50000AD8B4BBEF00F0E6EF00F01950BF
:10017800000AD8B440EF00F0010AD8B44EEF00F0FE
:10018800030AD8B464EF00F0010AD8B471EF00F0A4
:10019800070AD8B47EEF00F0010AD8B48EEF00F059
:1001A800030AD8B4A3EF00F0010AD8B4A7EF00F00F
:1001B8000F0AD8B4ABEF00F0020AD8B4E6EF00F0AB
:1001C800E6EF00F02A50D8B4ECEF00F0EEEF00F0C4
:1001D80001EF01F00A0E2A18D8B4F5EF00F0F7EF96
:1001E80000F001EF01F0000E2924D96EDA6A0C0E36
:1001F800DA22610070F4DFF4292A0A0E2A18D8A43A
:1002080008EF01F00AEF01F054EF01F00601005188
:10021800D8A411EF01F013EF01F054EF01F0020E32
:10022800006F28C501F627C502F626C503F625C5C1
:1002380004F6000E1B6E30EF01F0000E1B24D96E81
:10024800DA6A0B0EDA22050E1B24E16EE26A060E4C
:10025800E222DFC4E7F41B2A28501B5CD8A037EF42
:1002680001F039EF01F021EF01F0000E046E000EED
:10027800036E800E066E050E056E050E076E060EE1
:10028800086E01C609F50A6AF50E0B6E060E0C6EAD
:10029800F60E0D6E060E0E6E22EC02F0000E2A6EA1
:1002A8001200020E06010019D8A45DEF01F05FEFFD
:1002B80001F0BFEF01F0000E006FAEEF01F0020E8B
:1002C800DFEC03F0040EDFEC03F0230EDFEC03F0A9
:1002D800A30EDFEC03F0D00EDFEC03F0660E08018E
:1002E800006F660E016F660E026F660E036F000EDA
:1002F800046E000E036E800E066E050E056E000E6F
:10030800076E080E086E000E0A6E040E096E040EC3
:100318000B6E080E0C6E050E0D6E080E0E6E22EC9E
:1003280002F0030E0801066F000E1B6E000E1B2460
:10033800D96EDA6A080EDA22DF50DFEC03F01B2AE6
:10034800050E1B64AAEF01F0ACEF01F09AEF01F083
:10035800BFEF01F00451196E1A6A1A50000AD8B496
:10036800B8EF01F0BFEF01F01950500AD8B463EFAD
:1003780001F0BFEF01F01200000E2E24D96EDA6AE8
:10038800070EDA22000EDF6E0201FEA7CEEF01F0A3
:10039800D0EF01F0E5EF01F0000E2E24D96EDA6AF5
:1003A800070EDA220701DF8202D8E5EF01F0050027
:1003B800FA6E3750FD6E3850FE6E3950FF6EFA50A7
:1003C80012000201FEA3EBEF01F0EDEF01F002EFE6
:1003D80002F0000E2E24D96EDA6A070EDA2207011F
:1003E800DF8402D802EF02F00500FA6E3450FD6E89
:1003F8003550FE6E3650FF6EFA501200000E2E2455
:10040800D96EDA6A070EDA22DF50D8B40EEF02F09E
:1004180010EF02F01FEF02F002D81DEF02F0050006
:10042800FA6E3150FD6E3250FE6E3350FF6EFA5048
:10043800120021EF02F055EC04F0120003C517F585
:1004480004C518F5000E206E000E1F6E000E166E05
:100458005CEF02F016500724D96E000E0820DA6E01
:10046800DF500F6E0F50116E126A1150171A12508A
:10047800181A000E156E17A044EF02F046EF02F0AE
:100488004FEF02F0D890183217320550171A06505D
:10049800181A52EF02F0D89018321732152A070EA0
:1004A800156459EF02F05BEF02F03FEF02F0162AF5
:1004B80016500F6E106A09500F5C0A501058D8A0D9
:1004C80068EF02F06AEF02F02EEF02F017C514F59C
:1004D8001850136E61002CF4D9F4610030F4DAF48A
:1004E80061004CF4DFF4610034F4D9F4610038F4AD
:1004F800DAF4610050F4DFF41200AB90800E036E62
:10050800030E046E000E056EBAEC04F0AB92680E92
:10051800036E080E046E000E056EB3EC04F0000EB8
:100528000201F16F000EF36F000EF56FB00EF76F5A
:10053800800EF86F000EF96F440EFA6F000EFB6F15
:10054800000EFC6F000EFD6F000EFE6F000EFF6FB9
:10055800B80E036E090E046E000E056EC8EC04F0AA
:10056800B60E036E090E046E000E056EC1EC04F0A3
:10057800AC0E036E090E046E000E056ECFEC04F08F
:10058800000E2B6E000E306E000E2F6E4068000EAF
:100598002E6E000E2D6E000E2C6EAB80120003EE38
:1005A80000F010EEFFF0EE6AE550E150FCE1E25099
:1005B800FAE102EE00F310EEFFF0EE6AE550E150CA
:1005C800FCE1E250FAE102EE00F210EEFFF0EE6A12
:1005D800E550E150FCE1E250FAE102EE00F110EEE4
:1005E800FFF0EE6AE550E150FCE1E250FAE102EE7C
:1005F80000F0F00EEE6AE806FDE101EE00F310EE01
:10060800FFF0EE6AE550E150FCE1E250FAE101EE5C
:1006180000F2F80EEE6AE806FDE101EE1FF1120E97
:10062800EE6AE806FDE10401080E5D6F000E5E6FDC
:10063800000E5F6F0001B2EF03F0000EC26E000EF5
:10064800C16E000EBE6E000EBF6E000EC06E070EAD
:10065800CA6EC668FE0EC76EDF0EC86EC968040192
:100668001869DF0E106FFE0E086F070E206FDF0E81
:10067800006F000E196F000E216F000E096F000E3B
:10068800016F000E116F000E0201896F000E886F56
:10069800000E876F000E866F000E0401226F000E99
:1006A800026F000E0A6F000E126F000E1A6F0369B8
:1006B8000B6913691B69070E236F04690C691469B8
:1006C8001C690F0E246F050E02017A6F2C0E166F2F
:1006D80012006100E8F301F56100ECF302F5ABA24A
:1006E80078EF03F07AEF03F090EF03F0BBA27FEF0F
:1006F80003F081EF03F090EF03F002D88EEF03F0E0
:100708000500FA6E3A50FD6E3B50FE6E3C50FF6E8F
:10071800FA501200ABEF03F0ABA095EF03F097EFA0
:1007280003F0ABEF03F0BBA09CEF03F09EEF03F0E8
:10073800ABEF03F002D8ABEF03F00500FA6E3D50C3
:10074800FD6E3E50FE6E3F50FF6EFA501200610083
:1007580008F4FBF4610004F4FAF41100A8EC04F0C6
:10076800D68E1F4A202A6AEC04F020BEC5EF03F09B
:10077800310E1F5C750E2058D8A0C5EF03F0C7EFE7
:1007880003F0B5EF03F0000E206E000E1F6EBFB031
:10079800D0EF03F0D3EF03F0010ED4EF03F0000E17
:1007A800FF0A1E6EBF501E18FE0B1E18BF6EB5EF57
:1007B80003F00DEF00F0036E4050D8B4E6EF03F0FD
:1007C800E8EF03F0E0EF03F0ABB2EDEF03F0EFEF8B
:1007D80003F0F4EF03F061000CF4EFF20AEF04F019
:1007E800AB92000E3024D96EDA6A090EDA22610063
:1007F8000CF4DFF4302A3028D8A405EF04F007EF12
:1008080004F009EF04F0000E306E4006AB821200CF
:100818002C50D8B412EF04F014EF04F00CEF04F0ED
:10082800000E2D24D96EDA6A070EDA22DF502B6EFD
:10083800000E2D24D96EDA6A0A0EDA22DF50036E12
:100848002D2A2D28D8A42BEF04F02DEF04F02FEF3C
:1008580004F0000E2D6EAB902C06AB8003501200F6
:100868004028D8B43AEF04F03CEF04F053EF04F01A
:10087800000E2F24D96EDA6A090EDA22DF5002013F
:10088800EF6F2F2A2F28D8A44CEF04F04EEF04F076
:1008980050EF04F0000E2F6E402A54EF04F0AB9294
:1008A8001200000E2E24D96EDA6A0A0EDA22EDC280
:1008B800DFF42E2A2E28D8A464EF04F066EF04F0A3
:1008C80068EF04F0000E2E6E2C2A12009DEC04F046
:1008D8000009D8B472EF04F074EF04F07AEF04F072
:1008E8000CEC04F01D6E1D500FEC00F055EC01F0FF
:1008F8001200000E0001606F000E616F000E636F42
:10090800000E646F000E656F000E666F000E676F55
:10091800000E686F1200600E0001AD6F000EAF6F21
:10092800000EB36F060EB16F000EB06F000EAC6F05
:1009380012002C50D8A4A3EF04F0A6EF04F0010E87
:10094800A7EF04F0000E1200D9EC04F07DEC04F0DF
:1009580021EC03F08FEC04F081EC02F0120003C5E7
:100968003AF504C53BF505C53CF5120003C53DF550
:1009780004C53EF505C53FF5120003C534F504C5A9
:1009880035F505C536F5120003C537F504C538F544
:1009980005C539F5120003C531F504C532F505C59D
:1009A80033F5120055EC04F01200D69A120012002A
:0209B80012002B
:020000040020DA
:10000000FF0FFF0FFF0FFF0FFF0FFF0FFF0FFF0F80
:10001000FF0FFF0FFF0FFF0FFF0FFF0FFF0FFF0F70
:020000040030CA
:0A000000ECFFF7FF9FFFFFFFFFFF7B
:00000001FF
