:040008008FEF18F06E
:02001800FF00E7
:0220000045EBAE
:10200400FFFFFFFFFFFFFFFFFFFFFFFFFFFFFFFFDC
:10201400FFFFFFFFFFFFFFFFFFFFFFFFFFFFFFFFCC
:10202400FFFFFFFFFFFFFFFFFFFFFFFFFFFFFFFFBC
:10203400FFFFFFFFFFFFFFFFFFFFFFFFFFFFFFFFAC
:10204400FFFFFFFFFFFFFFFFFFFFFFFFFFFFFFFF9C
:10205400FFFFFFFFFFFFFFFFFFFFFFFFFFFFFFFF8C
:10206400FFFFFFFFFFFFFFFFFFFFFFFFFFFFFFFF7C
:10207400FFFFFFFFFFFFFFFFFFFFFFFFFFFFFFFF6C
:10208400FFFFFFFFFFFFFFFFFFFFFFFFFFFFFFFF5C
:10209400FFFFFFFFFFFFFFFFFFFFFFFFFFFFFFFF4C
:1020A400FFFFFFFFFFFFFFFFFFFFFFFFFFFFFFFF3C
:1020B400FFFFFFFFFFFFFFFFFFFFFFFFFFFFFFFF2C
:1020C400FFFFFFFFFFFFFFFFFFFFFFFFFFFFFFFF1C
:1020D400FFFFFFFFFFFFFFFFFFFFFFFFFFFFFFFF0C
:1020E400FFFFFFFFFFFFFFFFFFFFFFFFFFFFFFFFFC
:1020F400FFFFFFFFFFFFFFFFFFFFFFFFFEEFFFF00C
:10210400FFFFFFFFFFFFFFFFFFFFFFFFFFFFFFFFDB
:10211400FFFFFFFFFFFFFFFFFFFFFFFFFFFFFFFFCB
:10212400FFFFFFFFFFFFFFFFFFFFFFFFFFFFFFFFBB
:10213400FFFFFFFFFFFFFFFFFFFFFFFFFFFFFFFFAB
:1025F400FFFFFFFFFFFFFFFFFFFFFFFF00526573B9
:10260400657420426F6F74210053746F7020426FA1
:102614006F74210000FF01EF15F0020E060100198E
:10262400D8A417EF13F019EF13F01AEF15F0000EFA
:10263400006F000E1E6E000E0C6E000E0B6E000E70
:102644006100A0F3F0FA0B4A0C2AF00E0B24D96EA9
:102654000A0E0C20DA6E000EDF6E0B4A0C2AF00E06
:102664000B24D96E0A0E0C20DA6E000EDF6E0B4AB4
:102674000C2AF00E0B24D96E0A0E0C20DA6E000E12
:10268400DF6E0B4A0C2AF00E0B24D96E0A0E0C20B6
:10269400DA6E000EDF6E0B4A0C2AF00E0B24D96E94
:1026A4000A0E0C20DA6E000EDF6E0B4A0C2AE9EFDC
:1026B40013F0410E1E6EF00E0B24D96E0A0E0C2080
:1026C400DA6E000EDF6E0B4A0C2AF00E0B24326E0B
:1026D4000A0E0C20336E260E346E050E356E000E77
:1026E400376E080E366EBEEC18F0080E0B26000E80
:1026F4000C221AEF14F0420E1E6EF00E0B24D96E4B
:102704000A0E0C20DA6E000EDF6E0B4A0C2AF00E55
:102714000B24D96E0A0E0C20DA6E61004CF4DFF43F
:102724000B4A0C2AF00E0B24D96E0A0E0C20DA6E1A
:102734001450DF6E0B4A0C2A1AEF14F0430E1E6E6F
:10274400F00E0B24D96E0A0E0C20DA6E000EDF6E2A
:102754000B4A0C2AF00E0B24D96E0A0E0C20DA6EEA
:10276400610044F4DFF40B4A0C2AF00E0B24D96EFA
:102774000A0E0C20DA6E1250DF6E9CEF13F0440E3A
:102784001E6E5DEF13F0500E1E6EF00E0B24D96E0C
:102794000A0E0C20DA6E000EDF6E0B4A0C2AF00EC5
:1027A4000B24D96E0A0E0C20DA6EAA0EDF6E0B4AC9
:1027B4000C2AF00E0B24D96E0A0E0C20DA6EAA0E27
:1027C400DF6E9CEF13F0700E1E6EC7EF13F0055111
:1027D400496E4A6A4A50000AD8B4F3EF13F01AEF6C
:1027E40014F04950410AD8B45BEF13F0030AD8B48B
:1027F4007DEF13F0010AD8B4A0EF13F0070AD8B4A0
:10280400C1EF13F0140AD8B4C5EF13F0010AD8B419
:102814001AEF14F0030AD8B41AEF14F0010AD8B46A
:102824001AEF14F0230AD8B4E5EF13F01AEF14F0FA
:102834001E50D8B420EF14F022EF14F01AEF15F064
:10284400FA0E0B24096EFF0E0C200A6E020E6100B4
:10285400A0F3F0FA22EEF1F2610024F4DFF409C5EA
:1028640049F50AC54AF54AC549F54A6A610024F59D
:10287400F2FA210E6100A0F3F3FAA10E6100A0F3B5
:10288400F4FA1EC549F5800E4912610024F5F5FAE3
:10289400000E336E000E326E800E356E050E346EF1
:1028A400F10E366E0A0E376E050E0924386E000ED0
:1028B4000A20396E2F0E3A6E050E3B6E2E0E3C6EBC
:1028C400050E3D6ED6EC16F0F00E0B24D96E0A0EF2
:1028D4000C20DA6E6100BCF4DFF40B4A0C2AF00E13
:1028E4000B24D96E0A0E0C20DA6E6100B8F4DFF402
:1028F4000B4A0C2AF00E0B24D96E0A0E0C20DA6E49
:10290400030EDF6E0B4A0C2A1F2A1AEF15F0000E75
:10291400086E000E076E86EF14F00B50075C0C5027
:102924000858D8B098EF14F09AEF14F0B1EF14F0FF
:10293400E7EC19F00009D8B4A2EF14F0A4EF14F0F6
:102944001AEF15F0F00E0724D96E0A0E0820DA6E7D
:10295400DF50EBEC18F0074A082A1AEF15F0500E76
:102964001E18D8A4B8EF14F0BAEF14F0D7EF14F08F
:10297400E7EC19F00009D8B4C2EF14F0C4EF14F076
:10298400BAEF14F0000E326E0F0E336E010E346E79
:10299400260E356E40EC19F0680E496EE40EE82EF2
:1029A400FED7492EFCD700D0FF00700E1E18D8A405
:1029B400DEEF14F0E0EF14F0FDEF14F0E7EC19F0A3
:1029C4000009D8B4E8EF14F0EAEF14F0E0EF14F0E3
:1029D400000E326E0F0E336E0D0E346E260E356EF3
:1029E40040EC19F0680E496EE40EE82EFED7492E2D
:1029F400FCD700D0FF00000E1F6E1AEF15F01F5019
:102A0400496E4A6A4A50000AD8B40BEF15F01AEF1F
:102A140015F04950000AD8B40FEF13F0010AD8B4E6
:102A240089EF14F0030AD8B48FEF14F01AEF15F0FD
:102A340012004C6E030E1D18D8A423EF15F025EFD9
:102A440015F0DCEF15F0040E1D18D8A42CEF15F0CA
:102A54002EEF15F0DCEF15F0050E1D18D8A435EF98
:102A640015F037EF15F0DCEF15F0060E1D18D8A49D
:102A74003EEF15F040EF15F0DCEF15F0020E4C18A8
:102A8400D8A447EF15F049EF15F0DCEF15F0000E70
:102A94001D6EDCEF15F0020E4C18D8A454EF15F09F
:102AA40056EF15F015EF16F0000E066E000E056ECB
:102AB4001D2A15EF16F04CC503F5046A5AEF15F0FC
:102AC4004C504A6E496A495003124A500412045049
:102AD40009E1030E035CD8A072EF15F074EF15F052
:102AE4007EEF15F00304040E0458D8A07CEF15F013
:102AF4007EEF15F05AEF15F0000E1D6E15EF16F06F
:102B04004CC51CF5200E1C18D8B48BEF15F08DEFB6
:102B140015F05AEF15F07EEF15F04CC51BF5230E9A
:102B24001B18D8B498EF15F09AEF15F05AEF15F07A
:102B34001B28D8B4A0EF15F0A2EF15F05AEF15F04A
:102B44007EEF15F04CC51AF5400E1A60ACEF15F087
:102B5400AEEF15F0B0EF15F07EEF15F0000E026E3B
:102B6400000E016E5AEF15F0000E0124D96E0A0E04
:102B74000220DA6E610030F5DFF4014A022A0350C4
:102B8400015C04500258D8A0CAEF15F0CCEF15F040
:102B940015EF16F05AEF15F04CC519F55AEF15F06C
:102BA4004CC518F55AEF15F04CC517F50A0E1D6EF5
:102BB40015EF16F01D50496E4A6A4A50000AD8B4FF
:102BC400E6EF15F015EF16F04950000AD8B44DEFB2
:102BD40015F0010AD8B45DEF15F0030AD8B462EF1A
:102BE40015F0010AD8B482EF15F0070AD8B48FEFB4
:102BF40015F0010AD8B4A4EF15F0030AD8B4B6EF5F
:102C040015F0010AD8B4CEEF15F00F0AD8B4D2EFFC
:102C140015F0010AD8B4D6EF15F0030AD8B415EFAD
:102C240016F015EF16F00A0E1D18D8A41CEF16F0B6
:102C34001EEF16F073EF16F006010051D8A425EF2D
:102C440016F027EF16F073EF16F0020E006F03C5AF
:102C540001F604C502F61CC503F61BC504F61AC525
:102C640005F6000E4B6E46EF16F0000E4B24D96E9F
:102C7400DA6A0A0EDA22060E4B24E16EE26A060EC6
:102C8400E222DFC4E7F44B2A4B50496E4A6A0350F0
:102C9400495C04504A58D8A052EF16F054EF16F08D
:102CA40037EF16F0000E336E000E326E800E356E66
:102CB400050E346E010E366E060E376E050E0601D5
:102CC4000125386E000E0221396EF60E3A6E060E9C
:102CD4003B6EF70E3C6E060E3D6ED6EC16F0000E03
:102CE4001D6E1200000E2324D96EDA6A070EDA2252
:102CF400000EDF6E0201FEA782EF16F084EF16F0DD
:102D040099EF16F0000E2324D96EDA6A070EDA2240
:102D14000701DF8202D899EF16F00500FA6E5550CC
:102D2400FD6E5650FE6E5750FF6EFA5012000201AF
:102D3400FEA39FEF16F0A1EF16F0B6EF16F0000E0B
:102D44002324D96EDA6A070EDA220701DF8402D857
:102D5400B6EF16F00500FA6E5250FD6E5350FE6E3B
:102D64005450FF6EFA501200000E2324D96EDA6A12
:102D7400070EDA22DF50D8B4C2EF16F0C4EF16F013
:102D8400D3EF16F002D8D1EF16F00500FA6E4F50CB
:102D9400FD6E5050FE6E5150FF6EFA501200D5EF8A
:102DA40016F09FEC19F0120032C547F533C548F50B
:102DB400000E466E000E456E15EF17F04550362492
:102DC400D96E46503720DA6EDF503E6E3E503F6E6D
:102DD400406A3F50471A4050481A000E446E000E95
:102DE400436E47A0F8EF16F0FAEF16F003EF17F072
:102DF400D890483247323450471A3550481A06EFB3
:102E040017F0D89048324732434A442A445009E1E3
:102E1400080E435CD8A011EF17F013EF17F0F3EF8F
:102E240016F0454A462A3850455C39504658D8A0D1
:102E34001EEF17F020EF17F0E0EF16F047C542F54C
:102E44004850416E6100E8F4D9F46100ECF4DAF41E
:102E5400610004F5DFF46100F0F4D9F46100F4F4E6
:102E6400DAF4610008F5DFF41200700EF66E340E29
:102E7400F76E000EF86E01EE59F110EE05F0090040
:102E8400F5C4EEF4E550E150FAE102EEF0F210EE92
:102E940004F1EE6AE550E150FCE1E250FAE102EEA1
:102EA40000F2F00EEE6AE806FDE102EE00F110EE2B
:102EB400FFF0EE6AE550E150FCE1E250FAE102EE87
:102EC40000F010EEFFF0EE6AE550E150FCE1E25054
:102ED400FAE101EE00F310EEFFF0EE6AE550E15086
:102EE400FCE1E250FAE101EE00F2F90EEE6AE806C6
:102EF400FDE101EE01F12F0EEE6AE806FDE10401A9
:102F0400080E5D6F000E5E6F000E5F6F00015EEFD6
:102F140018F0AB90E80E326E2C0E336E000E346E49
:102F240019EC1AF0AB92CC0E326E320E336E000EE8
:102F3400346E12EC1AF0000E0201F16F000EF36F02
:102F4400000EF56FB00EF76F800EF86F000EF96F7C
:102F5400440EFA6F000EFB6F000EFC6F000EFD6F47
:102F6400000EFE6F000EFF6F780E326E340E336E5D
:102F7400000E346E27EC1AF0760E326E340E336E79
:102F8400000E346E20EC1AF06A0E326E340E336E7C
:102F9400000E346E2EEC1AF0000E206E000E256E1C
:102FA400000E246E5868000E236E000E226E000E72
:102FB400216EAB801200000EC26E000EC16E000EB8
:102FC400BE6E000EBF6E000EC06E070ECA6EC668DF
:102FD400FE0EC76EDF0EC86EC96804011869DF0EE5
:102FE400106FFE0E086F070E206FDF0E006F000ECD
:102FF400196F000E216F000E096F000E016F000E95
:10300400116F000E0201896F000E886F000E876F2A
:10301400000E866F000E0401226F000E026F000E78
:103024000A6F000E126F000E1A6F03690B691369A1
:103034001B69070E236F04690C6914691C690F0E60
:10304400246F050E02017A6F2C0E166F1200FC0E0F
:10305400326EFF0E336E3F0E346E000E356E87EC0B
:1030640019F032C513F533C514F5FE0E326EFF0E9A
:10307400336E3F0E346E000E356E87EC19F032C598
:1030840011F533C512F5000E0F6E000E106E000E12
:103094000D6E000E0E6E010E296E020E2A6E000ECB
:1030A4002B6E000E2C6E000E2D6E000E276E030E7E
:1030B400266E040E286E1200FDEC19F008EC1AF0CE
:1030C400D68E29EC18F0154A162AB4EC19F016BE5F
:1030D40075EF18F0310E155C750E1658D8A075EF03
:1030E40018F077EF18F065EF18F0000E166E000E6A
:1030F400156EBFB080EF18F083EF18F0010E84EF67
:1031040018F0000EFF0A4E6EBF504E18FE0B4E18FC
:10311400BF6E65EF18F0FEEFFFF06100E8F330F5E5
:103124006100ECF331F5ABA29AEF18F09CEF18F0C4
:10313400A7EF18F0BBA2A1EF18F0A3EF18F0A7EFC8
:1031440018F066EC19F0B7EF18F0ABA0ACEF18F07C
:10315400AEEF18F0B7EF18F0BBA0B3EF18F0B5EF6F
:1031640018F0B7EF18F074EC16F06100C4F4FBF437
:103174006100C0F4FAF4110034C53AF535C53BF5E5
:1031840032C538F533C539F5DDEF18F06100E8F4E0
:10319400D9F46100ECF4DAF4DF503C6E3A4A3B2A8D
:1031A4006100E0F4D9F46100E4F4DAF46100F0F4CD
:1031B400DFF4384A392A3606D8A03706362806E11D
:1031C4003728D8A4E8EF18F0EAEF18F0C8EF18F0A1
:1031D4001200326E5850D8B4F2EF18F0F4EF18F031
:1031E400ECEF18F0ABB2F9EF18F0FBEF18F000EFCA
:1031F40019F06100C8F4EFF216EF19F0AB92000E6B
:103204002524D96EDA6A080EDA226100C8F4DFF4E4
:10321400252A2528D8A411EF19F013EF19F015EF7A
:1032240019F0000E256E5806AB8212002150D8B456
:103234001EEF19F020EF19F018EF19F0000E2224F8
:10324400D96EDA6A070EDA22DF50206E000E2224CD
:10325400D96EDA6A090EDA22DF50326E222A222867
:10326400D8A437EF19F039EF19F03BEF19F0000E3D
:10327400226EAB902106AB803250120034C536F575
:1032840035C537F532C538F533C539F56100D8F49D
:10329400F6F46100DCF4F7F4364A372A000EF86ECF
:1032A4006100E0F4D9F46100E4F4DAF4384A392A2C
:1032B4000800F5C4DFF4DF50D8A463EF19F065EF1C
:1032C40019F048EF19F012005828D8B46CEF19F02F
:1032D4006EEF19F085EF19F0000E2424D96EDA6A26
:1032E400080EDA22DF500201EF6F242A2428D8A422
:1032F4007EEF19F080EF19F082EF19F0000E246EC2
:10330400582A86EF19F0AB9212006100D0F4F8F459
:103314006100CCF4F7F46100C8F4F6F4090061002C
:10332400D4F338F508006100D4F339F53950366E1A
:103334003850326E36C533F51200000E2324D96E90
:10334400DA6A090EDA22EDC2DFF4232A2328D8A48C
:10335400AEEF19F0B0EF19F0B2EF19F0000E236ED2
:10336400212A1200F2EC19F00009D8B4BCEF19F0CC
:10337400BEEF19F0C4EF19F018EC19F04D6E4D5072
:103384001BEC15F00DEC13F01200000E0001606F41
:10339400000E616F000E636F000E646F000E656FA8
:1033A400000E666F000E676F000E686F1200600EED
:1033B4000001AD6F000EAF6F000EB36F060EB16F5C
:1033C400000EB06F000EAC6F12005850D8A4EDEF91
:1033D40019F0F0EF19F0010EF1EF19F0000E1200E0
:1033E4002150D8A4F8EF19F0FBEF19F0010EFCEF0F
:1033F40019F0000E120008EC1AF0C7EC19F0DDEC1D
:1034040017F0D9EC19F08BEC17F01200D69AD69E6F
:10341400000E04015F6F210E5E6F000E5D6F1200DF
:1034240032C560F533C561F534C562F5120032C5A5
:1034340063F533C564F534C565F5120032C552F53C
:1034440033C553F534C554F5120032C555F533C5AB
:1034540056F534C557F5120032C54FF533C550F54E
:1034640034C551F512009FEC19F01200000F000F43
:1034740023FF12001200FFFFFFFFFFFFFFFFFFFF0C
:10348400FFFFFFFFFFFFFFFFFFFFFFFFFFFFFFFF48
:10349400FFFFFFFFFFFFFFFFFFFFFFFFFFFFFFFF38
:1034A400FFFFFFFFFFFFFFFFFFFFFFFFFFFFFFFF28
:1034B400FFFFFFFFFFFFFFFFFFFFFFFFFFFFFFFF18
:020000040001F9
:04FFFC0037EF17F0D4
:020000040020DA
:10000000FF0FFF0FFF0FFF0FFF0FFF0FFF0FFF0F80
:10001000FF0FFF0FFF0FFF0FFF0FFF0FFF0FFF0F70
:020000040030CA
:0A000000ECFFF7FF9FFFFFFFFFFF7B
:00000001FF
