:02200000D120ED
:10200400FFFFFFFFFFFFFFFFFFFFFFFFFFFFFFFFDC
:10201400FFFFFFFFFFFFFFFFFFFFFFFFFFFFFFFFCC
:10202400FFFFFFFFFFFFFFFFFFFFFFFFFFFFFFFFBC
:10203400FFFFFFFFFFFFFFFFFFFFFFFFFFFFFFFFAC
:10204400FFFFFFFFFFFFFFFFFFFFFFFFFFFFFFFF9C
:10205400FFFFFFFFFFFFFFFFFFFFFFFFFFFFFFFF8C
:10206400FFFFFFFFFFFFFFFFFFFFFFFFFFFFFFFF7C
:10207400FFFFFFFFFFFFFFFFFFFFFFFFFFFFFFFF6C
:10208400FFFFFFFFFFFFFFFFFFFFFFFFFFFFFFFF5C
:10209400FFFFFFFFFFFFFFFFFFFFFFFFFFFFFFFF4C
:1020A400FFFFFFFFFFFFFFFFFFFFFFFFFFFFFFFF3C
:1020B400FFFFFFFFFFFFFFFFFFFFFFFFFFFFFFFF2C
:1020C400FFFFFFFFFFFFFFFFFFFFFFFFFFFFFFFF1C
:1020D400FFFFFFFFFFFFFFFFFFFFFFFFFFFFFFFF0C
:1020E400FFFFFFFFFFFFFFFFFFFFFFFFFFFFFFFFFC
:1020F400FFFFFFFFFFFFFFFFFFFFFFFF8DEF10F06C
:10210400FFFFFFFF2CEF16F0FFFFFFFFFFFFFFFFB6
:10211400FFFFFFFFFF00E2EF14F0005265736574E8
:1021240020426F6F74210053746F7020426F6F747C
:10213400210000FF99EF12F06300FCF3E8F4020AB7
:10214400D8A4A7EF10F0A9EF10F0B2EF12F0000E30
:102154006100A0F3FFFC000E2D6E000E1B6E000E3E
:102164001A6E000E6100A1F308F11A4A1B2A080E28
:102174001A24D96E110E1B20DA6E000EDF6E1A4A75
:102184001B2A080E1A24D96E110E1B20DA6E000EBB
:10219400DF6E1A4A1B2A080E1A24D96E110E1B2050
:1021A400DA6E000EDF6E1A4A1B2A080E1A24D96E44
:1021B400110E1B20DA6E000EDF6E1A4A1B2A080E5F
:1021C4001A24D96E110E1B20DA6E000EDF6E1A4A25
:1021D4001B2A7BEF11F0410E2D6E080E1A24D96EC6
:1021E400110E1B20DA6E000EDF6E1A4A1B2A080E2F
:1021F4001A24396E110E1B203A6E600E3B6E050ECA
:102204003C6E000E3E6E080E3D6E5BEC16F0080E42
:102214001A26000E1B22AEEF11F0420E2D6E080E90
:102224001A24D96E110E1B20DA6E000EDF6E1A4AC4
:102234001B2A080E1A24D96E110E1B20DA6E6100B7
:1022440088F4DFF41A4A1B2A080E1A24D96E110ED8
:102254001B20DA6E2350DF6E1A4A1B2AAEEF11F0F0
:10226400430E2D6E080E1A24D96E110E1B20DA6E41
:10227400000EDF6E1A4A1B2A080E1A24D96E110E9C
:102284001B20DA6E610080F4DFF41A4A1B2A080E60
:102294001A24D96E110E1B20DA6E2150DF6E2EEF38
:1022A40011F0440E2D6EEFEF10F0500E2D6E080E4F
:1022B4001A24D96E110E1B20DA6E000EDF6E1A4A34
:1022C4001B2A080E1A24D96E110E1B20DA6EAA0ED0
:1022D400DF6E1A4A1B2A080E1A24D96E110E1B200F
:1022E400DA6EAA0EDF6E2EEF11F0700E2D6E59EF1E
:1022F40011F023EE04F1DF50506E516A5150000A80
:10230400D8B487EF11F0AEEF11F05050410AD8B4B1
:10231400EDEF10F0030AD8B40FEF11F0010AD8B4AE
:1023240032EF11F0070AD8B453EF11F0140AD8B4FD
:1023340057EF11F0010AD8B4AEEF11F0030AD8B484
:10234400AEEF11F0010AD8B4AEEF11F0230AD8B4FD
:1023540077EF11F0AEEF11F02D50D8B4B4EF11F0C7
:10236400B6EF11F0B2EF12F0FA0E1A24186EFF0E47
:102374001B20196E020E6100A1F308F124EE09F18D
:10238400610060F4DFF418C550F519C551F551C565
:1023940050F5516A610041F50AF1210E6100A1F383
:1023A4000BF1A10E6100A1F30CF12DC550F5800EC7
:1023B4005012610041F50DF1000E3A6E000E396EB7
:1023C400800E3C6E050E3B6E090E3D6E110E3E6E88
:1023D400050E18243F6E000E1920406E360E416E15
:1023E400050E426E350E436E050E446E21EC14F05C
:1023F400080E1A24D96E110E1B20DA6E6100D8F46F
:10240400DFF41A4A1B2A080E1A24D96E110E1B2057
:10241400DA6E6100D4F4DFF41A4A1B2A080E1A2477
:10242400D96E110E1B20DA6E030EDF6E1A4A1B2AB8
:102434002E2AB2EF12F0000E176E000E166E1AEF6F
:1024440012F01A50165C1B501758D8B02CEF12F02B
:102454002EEF12F045EF12F084EC17F00009D8B417
:1024640036EF12F038EF12F0B2EF12F0080E162425
:10247400D96E110E1720DA6EDF5088EC16F0164A6A
:10248400172AB2EF12F0500E2D18D8A44CEF12F008
:102494004EEF12F06FEF12F084EC17F00009D8B48D
:1024A40056EF12F058EF12F04EEF12F0000E596E84
:1024B400050E5A6E000E396E050E3A6E1F0E3B6EF7
:1024C400210E3C6EDDEC16F0680E506EE40EE82E24
:1024D400FED7502EFCD700D0FF00700E2D18D8A4C4
:1024E40076EF12F078EF12F095EF12F084EC17F01B
:1024F4000009D8B480EF12F082EF12F078EF12F0F6
:1025040059C539F55AC53AF52B0E3B6E210E3C6E72
:10251400DDEC16F0680E506EE40EE82EFED7502E59
:10252400FCD700D0FF00000E2E6EB2EF12F02E503A
:10253400506E516A5150000AD8B4A3EF12F0B2EFB2
:1025440012F05050000AD8B49EEF10F0010AD8B42B
:102554001DEF12F0030AD8B423EF12F0B2EF12F019
:102564001200536E030E2C18D8A4BBEF12F0BDEF6B
:1025740012F074EF13F0040E2C18D8A4C4EF12F068
:10258400C6EF12F074EF13F0050E2C18D8A4CDEF9B
:1025940012F0CFEF12F074EF13F0060E2C18D8A43B
:1025A400D6EF12F0D8EF12F074EF13F0020E5318B6
:1025B400D8A4DFEF12F0E1EF12F074EF13F0000E85
:1025C4002C6E74EF13F0020E5318D8A4ECEF12F033
:1025D400EEEF12F0ADEF13F0000E156E000E146E58
:1025E4002C2AADEF13F053C512F5136AF2EF12F073
:1025F4005350516E506A50501212515013121350CE
:1026040009E1030E125CD8A00AEF13F00CEF13F0EB
:1026140016EF13F01204040E1358D8A014EF13F09D
:1026240016EF13F0F2EF12F0000E2C6EADEF13F074
:1026340053C52BF5200E2B18D8B423EF13F025EF38
:1026440013F0F2EF12F016EF13F053C52AF5230E30
:102654002A18D8B430EF13F032EF13F0F2EF12F07F
:102664002A28D8B438EF13F03AEF13F0F2EF12F04F
:1026740016EF13F053C529F5400E296044EF13F00B
:1026840046EF13F048EF13F016EF13F0000E116E3F
:10269400000E106EF2EF12F0FF0E1024D96E080E29
:1026A4001120DA6E61004CF5DFF4104A112A125041
:1026B400105C13501158D8A062EF13F064EF13F0BC
:1026C400ADEF13F0F2EF12F053C528F5F2EF12F06C
:1026D40053C527F5F2EF12F053C526F50A0E2C6EFA
:1026E400ADEF13F02C50506E516A5150000AD8B41B
:1026F4007EEF13F0ADEF13F05050000AD8B4E5EFBD
:1027040012F0010AD8B4F5EF12F0030AD8B4FAEFC4
:1027140012F0010AD8B41AEF13F0070AD8B427EF5D
:1027240013F0010AD8B43CEF13F0030AD8B44EEF07
:1027340013F0010AD8B466EF13F00F0AD8B46AEFA5
:1027440013F0010AD8B46EEF13F0030AD8B4ADEF56
:1027540013F0ADEF13F00A0E2C18D8A4B4EF13F055
:10276400B6EF13F020EF14F023EEFFF0DF50D8A4FF
:10277400BEEF13F0C0EF13F020EF14F0020E61006F
:10278400A0F3FFFC610048F400FD61004CF401FD7E
:1027940023EE02F16100ACF4DFF423EE03F16100F7
:1027A400A8F4DFF423EE04F16100A4F4DFF4000ED6
:1027B400526EECEF13F0FF0E5224D96EDA6A080E53
:1027C400DA22050E5224E16EE26A0D0EE222DFC423
:1027D400E7F4522A5250506E516A1250505C135012
:1027E4005158D8A0F8EF13F0FAEF13F0DDEF13F01F
:1027F400000E3A6E000E396E800E3C6E050E3B6E76
:10280400000E3D6E0D0E3E6E23EE00F1610078F376
:1028140050F5610074F351F5050E50243F6E000E1F
:102824005120406E050E416E110E426E060E436E2F
:10283400110E446E21EC14F0000E2C6E120039C5FA
:102844004EF53AC54FF5000E4D6E000E4C6E60EF1E
:1028540014F04C503D24D96E4D503E20DA6EDF50BA
:10286400456E4550466E476A46504E1A47504F1AB9
:10287400000E4B6E000E4A6E4EA043EF14F045EF6F
:1028840014F04EEF14F0D8904F324E323B504E1AA3
:102894003C504F1A51EF14F0D8904F324E324A4AFE
:1028A4004B2A4B5009E1080E4A5CD8A05CEF14F0A7
:1028B4005EEF14F03EEF14F04C4A4D2A3F504C5C4E
:1028C40040504D58D8A069EF14F06BEF14F02BEF83
:1028D40014F04EC549F54F50486E610004F5D9F423
:1028E400610008F5DAF4610020F5DFF461000CF50D
:1028F400D9F4610010F5DAF4610024F5DFF4120074
:10290400000E3224D96EDA6A060EDA22000EDF6E69
:102914000201FEA790EF14F092EF14F0A6EF14F06A
:10292400000E3224D96EDA6A060EDA220601DF823C
:1029340002D8A6EF14F00500FA6E5650FD6E5750FB
:10294400FE6EFF6AFA5012000201FEA3ACEF14F00F
:10295400AEEF14F0C2EF14F0000E3224D96EDA6A2E
:10296400060EDA220601DF8402D8C2EF14F0050055
:10297400FA6E5450FD6E5550FE6EFF6AFA50120006
:10298400000E3224D96EDA6A060EDA22DF50D8B489
:10299400CEEF14F0D0EF14F0DFEF14F002D8DDEF37
:1029A40014F00500FA6E05016851FD6E6951FE6E62
:1029B400FF6AFA501200E1EF14F03BEC17F012003A
:1029C400960EF66E2F0EF76E000EF86E01EE59F1AC
:1029D40010EE05F00900F5C4EEF4E550E150FAE11B
:1029E40002EEFFF012EE0DF1EE6AE550E150FCE16B
:1029F400E250FAE102EE00F010EEFFF0EE6AE5506C
:102A0400E150FCE1E250FAE101EE00F310EEFFF0D8
:102A1400EE6AE550E150FCE1E250FAE101EE00F229
:102A240010EEFFF0EE6AE550E150FCE1E250FAE10D
:102A340001EE60F1080EEE6AE806FDE101EE10F128
:102A4400270EEE6AE806FDE10401080E5D6F210E13
:102A54005E6F000E5F6F0001FAEF15F0000EC26E9C
:102A6400000EC16E000EBE6E000EBF6E000EC06E74
:102A7400070ECA6EC668FE0EC76EDF0EC86EC96842
:102A840004011869DF0E106FFE0E086F070E206F29
:102A9400DF0E006F000E196F000E216F000E096F1C
:102AA400000E016F000E116F000E0201896F000EFF
:102AB400886F000E876F000E866F000E0401226F70
:102AC400000E026F000E0A6F000E126F000E1A6FD6
:102AD40003690B6913691B69070E236F04690C6989
:102AE40014691C690F0E246F050E02017A6F2C0EF7
:102AF400166F1200AB90040E396E290E3A6EB4ECC8
:102B040017F0AB92040E396E2E0E3A6EAFEC17F03E
:102B1400000E0201F16F000EF36F000EF56FB00EA0
:102B2400F76F800EF86F000EF96F440EFA6F000E07
:102B3400FB6F000EFC6F000EFD6F000EFE6F000EAB
:102B4400FF6F9E0E396E2F0E3A6EBEEC17F09C0E80
:102B5400396E2F0E3A6EB9EC17F0900E396E2F0EB7
:102B64003A6EC3EC17F0000E2F6E000E346E000E9A
:102B7400336E5868000E326E000E316E000E306EE9
:102B8400AB801200FC0E396EFF0E3A6E3F0E3B6EA8
:102B9400000E3C6E23EC17F039C522F53AC523F537
:102BA400FE0E396EFF0E3A6E3F0E3B6E000E3C6E0B
:102BB40023EC17F039C520F53AC521F5000E1E6E39
:102BC400000E1F6E000E1C6E000E1D6E010E050120
:102BD400636F020E646F000E656F000E666F000E69
:102BE400676F000E616F030E606F040E626F120058
:102BF4009AEC17F0A5EC17F0D68EC4EC15F0244A25
:102C0400252A50EC17F025BE11EF16F0310E245C86
:102C1400750E2558D8A011EF16F013EF16F001EF3A
:102C240016F0000E256E000E246EBFB01CEF16F0D9
:102C34001FEF16F0010E20EF16F0000EFF0A05013B
:102C44006F6FBF506F19FE0B6F19BF6E01EF16F057
:102C54008DEF10F06100E8F337F56100ECF338F51F
:102C6400ABA237EF16F039EF16F044EF16F0BBA223
:102C74003EEF16F040EF16F044EF16F002EC17F0BA
:102C840054EF16F0ABA049EF16F04BEF16F054EFEB
:102C940016F0BBA050EF16F052EF16F054EF16F0FA
:102CA40082EC14F06100E0F4FBF46100DCF4FAF46B
:102CB40011003BC542F53CC543F539C540F53AC55D
:102CC40041F57AEF16F0610008F5D9F461000CF5CE
:102CD400DAF4DF503F6E424A432A610000F5D9F42A
:102CE400610004F5DAF46100FCF4DFF4404A412A9F
:102CF4003D06D8A03E063D2806E13E28D8A485EF2F
:102D040016F087EF16F065EF16F01200396E585082
:102D1400D8B48FEF16F091EF16F089EF16F0ABB23E
:102D240096EF16F098EF16F09DEF16F06100E4F4BC
:102D3400EFF2B3EF16F0AB92000E3424D96EDA6AD8
:102D4400070EDA226100E4F4DFF4342A3428D8A42C
:102D5400AEEF16F0B0EF16F0B2EF16F0000E346ED0
:102D64005806AB8212003050D8B4BBEF16F0BDEF5A
:102D740016F0B5EF16F0000E3124D96EDA6A060E9D
:102D8400DA22DF502F6E000E3124D96EDA6A080E73
:102D9400DA22DF50396E312A3128D8A4D4EF16F064
:102DA400D6EF16F0D8EF16F0000E316EAB90300669
:102DB400AB80395012003BC53DF53CC53EF539C5E5
:102DC4003FF53AC540F56100F4F4F6F46100F8F417
:102DD400F7F43D4A3E2AF86A6100FCF4D9F4610034
:102DE40000F5DAF43F4A402A0800F5C4DFF4DF5066
:102DF400D8A4FFEF16F001EF17F0E5EF16F012007C
:102E04005828D8B408EF17F00AEF17F021EF17F09D
:102E1400000E3324D96EDA6A070EDA22DF5002017B
:102E2400EF6F332A3328D8A41AEF17F01CEF17F0EA
:102E34001EEF17F0000E336E582A22EF17F0AB92F4
:102E440012006100ECF4F8F46100E8F4F7F46100B6
:102E5400E4F4F6F409006100D4F33FF508006100DE
:102E6400D4F340F540503D6E3F50396E3DC53AF5C0
:102E74001200000E3224D96EDA6A080EDA22EDC28C
:102E8400DFF4322A3228D8A44AEF17F04CEF17F0B7
:102E94004EEF17F0000E326E302A12008FEC17F04E
:102EA4000009D8B458EF17F05AEF17F061EF17F094
:102EB400B5EC16F005016E6F6E51B3EC12F09CEC9C
:102EC40010F01200000E0001606F000E616F000E22
:102ED400636F000E646F000E656F000E666F000E68
:102EE400676F000E686F1200600E0001AD6F000E78
:102EF400AF6F000EB36F060EB16F000EB06F000E11
:102F0400AC6F12005850D8A48AEF17F08DEF17F069
:102F1400010E8EEF17F0000E12003050D8A495EF7A
:102F240017F098EF17F0010E99EF17F0000E12004A
:102F3400A5EC17F064EC17F030EC15F076EC17F014
:102F44007CEC15F01200D69AD69E000E04015F6F39
:102F5400210E5E6F080E5D6F120039C56AF53AC521
:102F64006BF5120039C56CF53AC56DF5120039C51B
:102F740054F53AC555F5120039C556F53AC557F515
:102F8400120039C568F53AC569F512003BEC17F033
:102F940012000005000F23FF12001200FFFFFFFFC5
:102FA400FFFFFFFFFFFFFFFFFFFFFFFFFFFFFFFF2D
:102FB400FFFFFFFFFFFFFFFFFFFFFFFFFFFFFFFF1D
:102FC400FFFFFFFFFFFFFFFFFFFFFFFFFFFFFFFF0D
:102FD400FFFFFFFFFFFFFFFFFFFFFFFFFFFFFFFFFD
:020000040020DA
:020000040030CA
:0A000000ECFFF7FF9FFFFFFFFFFF7B
:00000001FF
