:04000000FEEF0FF010
:0410280012001200A0
:10102D000005000F23AAEC08F012003AC560F53B4D
:10103D00C561F53CC562F512003AC55AF53BC55B75
:10104D00F53CC55CF512003AC563F53BC564F53C4E
:10105D00C565F512003AC569F53BC56AF53CC56B2A
:10106D00F512003AC566F53BC567F53CC568F51246
:10107D0000D69AD69E000E04015F6F210E5E6F089A
:10108D000E5D6F12003FEC08F084EC08F06BEC0A7B
:10109D00F076EC08F0B7EC0AF012002150D8A45A03
:1010AD00EF08F05DEF08F0010E5EEF08F0000E1294
:1010BD00005D50D8A465EF08F068EF08F0010E69E7
:1010CD00EF08F0000E12006100F0F4F8F46100EC8E
:1010DD00F4F7F46100E8F4F6F40800F5501200603E
:1010ED000E0001AD6F000EAF6F000EB36F060EB1A7
:1010FD006F000EB06F000EAC6F1200000E0001609D
:10110D006F000E616F000E636F000E646F000E6551
:10111D006F000E666F000E676F000E686F12005441
:10112D00EC08F00009D8B49EEF08F0A0EF08F0A786
:10113D00EF08F040EC09F005016C6F6C515FEC0CA1
:10114D00F0CDEC0DF01200000E2324D96EDA6A08F2
:10115D000EDA22EDC2DFF4232A2328D8A4B9EF0832
:10116D00F0BBEF08F0BDEF08F0000E236E212A1240
:10117D00006100F0F4F8F46100ECF4F7F46100E8BC
:10118D00F4F6F409006100D4F340F508006100D4D1
:10119D00F341F541503E6E40503A6E3EC53BF5125F
:1011AD00005D28D8B4DDEF08F0DFEF08F0F6EF08AA
:1011BD00F0000E2424D96EDA6A070EDA22DF50020F
:1011CD0001EF6F242A2428D8A4EFEF08F0F1EF08DF
:1011DD00F0F3EF08F0000E246E5D2AF7EF08F0AB88
:1011ED009212006100F0F4F8F46100ECF4F7F46190
:1011FD0000E8F4F6F409006100D4F33EF50900614E
:10120D0000D4F33FF509006100D4F340F508006107
:10121D0000D4F341F53EC53AF53FC53BF540C53C1D
:10122D00F541C53DF512003CC53EF53DC53FF53ACE
:10123D00C540F53BC541F56100F8F4F6F46100FCDD
:10124D00F4F7F43E4A3F2A000EF86E610000F5D91E
:10125D00F4610004F5DAF4404A412A0800F5C4DFD0
:10126D00F4DF50D8A43DEF09F03FEF09F022EF096C
:10127D00F012002150D8B446EF09F048EF09F040C4
:10128D00EF09F0000E2224D96EDA6A060EDA22DF9B
:10129D0050206E000E2224D96EDA6A080EDA22DF93
:1012AD00503A6E222A2228D8A45FEF09F061EF0987
:1012BD00F063EF09F0000E226EAB902106AB803A81
:1012CD005012003A6E5D50D8B46FEF09F071EF090E
:1012DD00F069EF09F0ABB276EF09F078EF09F07D28
:1012ED00EF09F06100E8F4EFF293EF09F0AB920033
:1012FD000E2524D96EDA6A070EDA226100E8F4DFD2
:10130D00F4252A2528D8A48EEF09F090EF09F09244
:10131D00EF09F0000E256E5D06AB8212003CC54351
:10132D00F53DC544F53AC541F53BC542F5B4EF0968
:10133D00F061000CF5D9F4610010F5DAF4DF5040DE
:10134D006E434A442A610004F5D9F4610008F5DAC8
:10135D00F4610000F5DFF4414A422A3E06D8A03F71
:10136D00063E2806E13F28D8A4BFEF09F0C1EF09DA
:10137D00F09FEF09F012006100E8F338F56100EC21
:10138D00F339F5ABA2CDEF09F0CFEF09F0DAEF09A4
:10139D00F0BBA2D4EF09F0D6EF09F0DAEF09F0D7E0
:1013AD00EC08F0EAEF09F0ABA0DFEF09F0E1EF098F
:1013BD00F0EAEF09F0BBA0E6EF09F0E8EF09F0EA7B
:1013CD00EF09F06AEC0BF06100E4F4FBF46100E06E
:1013DD00F4FAF4110049EC08F03FEC08F0D68ECE8B
:1013ED00EC0BF0154A162A96EC08F016BE08EF0A1B
:1013FD00F0310E155C750E1658D8A008EF0AF00ADC
:10140D00EF0AF0F8EF09F0000E166E000E156EBF24
:10141D00B013EF0AF016EF0AF0010E17EF0AF00005
:10142D000EFF0A05016D6FBF506D19FE0B6D19BFD3
:10143D006EF8EF09F0FEEF0FF02D0EF66E100EF7B1
:10144D006E000EF86E01EE55F110EE05F00900F587
:10145D00C4EEF4E550E150FAE102EEFFF012EE0DAC
:10146D00F1EE6AE550E150FCE1E250FAE102EE00E6
:10147D00F010EEFFF0EE6AE550E150FCE1E250FABB
:10148D00E101EE00F310EEFFF0EE6AE550E150FCE5
:10149D00E1E250FAE101EE00F210EEFFF0EE6AE546
:1014AD0050E150FCE1E250FAE101EE01F1370EEEB0
:1014BD006AE806FDE10401080E5D6F210E5E6F0006
:1014CD000E5F6F0001F1EF09F0000EC26E000EC14C
:1014DD006E000EBE6E000EBF6E000EC06E070ECA01
:1014ED006EC668FE0EC76EDF0EC86EC968040118A1
:1014FD0069DF0E106FFE0E086F070E206FDF0E00F6
:10150D006F000E196F000E216F000E096F000E0196
:10151D006F000E116F000E0201896F000E886F00B3
:10152D000E876F000E866F000E0401226F000E02F3
:10153D006F000E0A6F000E126F000E1A6F03690B0B
:10154D006913691B69070E236F04690C6914691C03
:10155D00690F0E246F050E02017A6F2C0E166F1295
:10156D0000AB90D40E3A6E160E3B6E000E3C6E31F3
:10157D00EC08F0AB92AE0E3A6E110E3B6E000E3CC7
:10158D006E38EC08F0000E0201F16F000EF36F00E3
:10159D000EF56FB00EF76F800EF86F000EF96F44F9
:1015AD000EFA6F000EFB6F000EFC6F000EFD6F004C
:1015BD000EFE6F000EFF6F280E3A6E100E3B6E0082
:1015CD000E3C6E23EC08F02A0E3A6E100E3B6E00A8
:1015DD000E3C6E2AEC08F0320E3A6E100E3B6E0089
:1015ED000E3C6E1CEC08F0000E206E000E256E00F9
:1015FD000E246E5D68000E236E000E226E000E210D
:10160D006EAB8012003AC54FF53BC550F5000E4E3E
:10161D006E000E4D6E48EF0BF04D503E24D96E4EC0
:10162D00503F20DA6EDF50466E4650476E486A478F
:10163D00504F1A4850501A000E4C6E000E4B6E4F04
:10164D00A02BEF0BF02DEF0BF036EF0BF0D89050E9
:10165D00324F323C504F1A3D50501A39EF0BF0D8E3
:10166D009050324F324B4A4C2A4C5009E1080E4BE8
:10167D005CD8A044EF0BF046EF0BF026EF0BF04DCE
:10168D004A4E2A40504D5C41504E58D8A051EF0B58
:10169D00F053EF0BF013EF0BF04FC54AF5505049D7
:1016AD006E610008F5D9F461000CF5DAF4610024DF
:1016BD00F5DFF4610010F5D9F4610014F5DAF46189
:1016CD000028F5DFF41200000E2324D96EDA6A0625
:1016DD000EDA22000EDF6E0201FEA778EF0BF07A14
:1016ED00EF0BF08FEF0BF0000E2324D96EDA6A06A4
:1016FD000EDA220601DF8202D88FEF0BF00500FA19
:10170D006E5A50FD6E5B50FE6E5C50FF6EFA5012BD
:10171D00000201FEA395EF0BF097EF0BF0ADEF0B71
:10172D00F0000E2324D96EDA6A060EDA220601DFE6
:10173D008402D8ADEF0BF00500FA6E05016351FD83
:10174D006E6451FE6E6551FF6EFA501200000E234D
:10175D0024D96EDA6A060EDA22DF50D8B4B9EF0B4F
:10176D00F0BBEF0BF0CBEF0BF002D8C9EF0BF00590
:10177D0000FA6E05016051FD6E6151FE6E6251FF02
:10178D006EFA501200CDEF0BF0AAEC08F01200FC2F
:10179D000E3A6EFF0E3B6E3F0E3C6E000E3D6EBF61
:1017AD00EC08F03AC513F53BC514F5FE0E3A6EFF85
:1017BD000E3B6E3F0E3C6E000E3D6EBFEC08F03AD8
:1017CD00C511F53BC512F5000E0F6E000E106E0023
:1017DD000E0D6E000E0E6E000E3A6E200E3B6E005C
:1017ED000E3C6E000E3D6EF8EC08F03AC532F53B3E
:1017FD00C533F53CC534F53DC535F5080E3A6E20BB
:10180D000E3B6E000E3C6E000E3D6E6AEC08F03124
:10181D006E0A0E3A6E200E3B6E000E3C6E000E3DB3
:10182D006E6AEC08F0426E42502E6E2F6A0C0E3A24
:10183D006E200E3B6E000E3C6E000E3D6E6AEC0887
:10184D00F0306EFC0E3A6E1F0E3B6E000E3C6E00BD
:10185D000E3D6EF8EC08F03AC52AF53BC52BF53C6C
:10186D00C52CF53DC52DF5F00E3A6E1F0E3B6E00E5
:10187D000E3C6E000E3D6E6AEC08F0296EF20E3ACB
:10188D006E1F0E3B6E000E3C6E000E3D6E6AEC0838
:10189D00F0426E4250266E276AF40E3A6E1F0E3BD2
:1018AD006E000E3C6E000E3D6E6AEC08F0286E1256
:1018BD0000546E030E1D18D8A467EF0CF069EF0CE1
:1018CD00F020EF0DF0040E1D18D8A470EF0CF0727F
:1018DD00EF0CF020EF0DF0050E1D18D8A479EF0CCC
:1018ED00F07BEF0CF020EF0DF0060E1D18D8A48242
:1018FD00EF0CF084EF0CF020EF0DF0020E5418D821
:10190D00A48BEF0CF08DEF0CF020EF0DF0000E1D01
:10191D006E20EF0DF0020E5418D8A498EF0CF09A2B
:10192D00EF0CF059EF0DF0000E066E000E056E1D5A
:10193D002A59EF0DF054C503F5046A9EEF0CF054CF
:10194D0050526E516A5150031252500412045009F4
:10195D00E1030E035CD8A0B6EF0CF0B8EF0CF0C2AB
:10196D00EF0CF00304040E0458D8A0C0EF0CF0C225
:10197D00EF0CF09EEF0CF0000E1D6E59EF0DF054B4
:10198D00C51CF5200E1C18D8B4CFEF0CF0D1EF0C00
:10199D00F09EEF0CF0C2EF0CF054C51BF5230E1B9F
:1019AD0018D8B4DCEF0CF0DEEF0CF09EEF0CF01B52
:1019BD0028D8B4E4EF0CF0E6EF0CF09EEF0CF0C27B
:1019CD00EF0CF054C51AF5400E1A60F0EF0CF0F262
:1019DD00EF0CF0F4EF0CF0C2EF0CF0000E026E0005
:1019ED000E016E9EEF0CF0FF0E0124D96E080E0253
:1019FD0020DA6E610050F5DFF4014A022A0350012E
:101A0D005C04500258D8A00EEF0DF010EF0DF059F8
:101A1D00EF0DF09EEF0CF054C519F59EEF0CF05440
:101A2D00C518F59EEF0CF054C517F50A0E1D6E592D
:101A3D00EF0DF01D50516E526A5250000AD8B42A63
:101A4D00EF0DF059EF0DF05150000AD8B491EF0C95
:101A5D00F0010AD8B4A1EF0CF0030AD8B4A6EF0C2C
:101A6D00F0010AD8B4C6EF0CF0070AD8B4D3EF0CC6
:101A7D00F0010AD8B4E8EF0CF0030AD8B4FAEF0C71
:101A8D00F0010AD8B412EF0DF00F0AD8B416EF0D0D
:101A9D00F0010AD8B41AEF0DF0030AD8B459EF0DBE
:101AAD00F059EF0DF00A0E1D18D8A460EF0DF0627D
:101ABD00EF0DF0CCEF0DF023EEFFF0DF50D8A46A60
:101ACD00EF0DF06CEF0DF0CCEF0DF0020E6100A0FC
:101ADD00F3FFFC61000CF400FD610010F401FD2327
:101AED00EE02F1610070F4DFF423EE03F161006C9E
:101AFD00F4DFF423EE04F1610068F4DFF4000E531B
:101B0D006E98EF0DF0FF0E5324D96EDA6A080EDAD7
:101B1D0022050E5324E16EE26A0D0EE222DFC4E7C8
:101B2D00F4532A5350516E526A0350515C04505273
:101B3D0058D8A0A4EF0DF0A6EF0DF089EF0DF00031
:101B4D000E3B6E000E3A6E800E3D6E050E3C6E0025
:101B5D000E3E6E0D0E3F6E23EE00F1610078F351D7
:101B6D00F5610074F352F5050E5124406E000E52CE
:101B7D0020416E050E426E110E436E060E446E111F
:101B8D000E456E09EC0BF0000E1D6E1200E4EF0F0A
:101B9D00F06300FCF3E8F4020AD8A4D8EF0DF0DAF4
:101BAD00EF0DF0FDEF0FF0000E6100A0F3FFFC0054
:101BBD000E1E6E000E0C6E000E0B6E000E6100A15F
:101BCD00F308F10B4A0C2A080E0B24D96E110E0CDA
:101BDD0020DA6E000EDF6E0B4A0C2A080E0B24D98C
:101BED006E110E0C20DA6E000EDF6E0B4A0C2A08F9
:101BFD000E0B24D96E110E0C20DA6E000EDF6E0B5B
:101C0D004A0C2A080E0B24D96E110E0C20DA6E0028
:101C1D000EDF6E0B4A0C2A080E0B24D96E110E0C1A
:101C2D0020DA6E000EDF6E0B4A0C2AC6EF0EF04165
:101C3D000E1E6E080E0B24D96E110E0C20DA6E00DE
:101C4D000EDF6E0B4A0C2A080E0B243A6E110E0C89
:101C5D00203B6E2E0E3C6E050E3D6E000E3F6E0847
:101C6D000E3E6E95EC09F0080E0B26000E0C22F9B7
:101C7D00EF0EF0420E1E6E080E0B24D96E110E0CD7
:101C8D0020DA6E000EDF6E0B4A0C2A080E0B24D9DB
:101C9D006E110E0C20DA6E61004CF4DFF40B4A0C61
:101CAD002A080E0B24D96E110E0C20DA6E1450DF9B
:101CBD006E0B4A0C2AF9EF0EF0430E1E6E080E0B3A
:101CCD0024D96E110E0C20DA6E000EDF6E0B4A0C4D
:101CDD002A080E0B24D96E110E0C20DA6E61004409
:101CED00F4DFF40B4A0C2A080E0B24D96E110E0CDE
:101CFD0020DA6E1250DF6E5FEF0EF0440E1E6E088E
:101D0D000E0B24D96E110E0C20DA6E000EDF6E0B49
:101D1D004A0C2A080E0B243A6E110E0C203B6E262F
:101D2D000E3C6E050E3D6E000E3F6E080E3E6E951E
:101D3D00EC09F03AEF0EF0500E1E6E080E0B24D982
:101D4D006E110E0C20DA6E000EDF6E0B4A0C2A0897
:101D5D000E0B24D96E110E0C20DA6EAA0EDF6E0B4F
:101D6D004A0C2A080E0B24D96E110E0C20DA6EAA1D
:101D7D000EDF6E5FEF0EF0700E1E6EA4EF0EF023F1
:101D8D00EE04F1DF50516E526A5250000AD8B4D2AF
:101D9D00EF0EF0F9EF0EF05150410AD8B41EEF0ED0
:101DAD00F0030AD8B440EF0EF0010AD8B463EF0E79
:101DBD00F0070AD8B484EF0EF0140AD8B4A2EF0ECF
:101DCD00F0010AD8B4F9EF0EF0030AD8B4F9EF0E0A
:101DDD00F0010AD8B4F9EF0EF0230AD8B4C2EF0E11
:101DED00F0F9EF0EF01E50D8B4FFEF0EF001EF0F2B
:101DFD00F0FDEF0FF0FA0E0B24096EFF0E0C200A0A
:101E0D006E020E6100A1F308F124EE09F1610024C8
:101E1D00F4DFF409C551F50AC552F552C551F55215
:101E2D006A610045F50AF1210E6100A1F30BF1A1E4
:101E3D000E6100A1F30CF11EC551F5800E5112611A
:101E4D000045F50DF1000E3B6E000E3A6E800E3D15
:101E5D006E050E3C6E090E3E6E110E3F6E050E099F
:101E6D0024406E000E0A20416E370E426E050E4361
:101E7D006E360E446E050E456E09EC0BF0080E0B1A
:101E8D0024D96E110E0C20DA6E6100DCF4DFF40B38
:101E9D004A0C2A080E0B24D96E110E0C20DA6E6135
:101EAD0000D8F4DFF40B4A0C2A080E0B24D96E115E
:101EBD000E0C20DA6E030EDF6E0B4A0C2A1F2AFD64
:101ECD00EF0FF0000E086E000E076E65EF0FF00BB2
:101EDD0050075C0C500858D8B077EF0FF079EF0F22
:101EED00F090EF0FF05FEC08F00009D8B481EF0F20
:101EFD00F083EF0FF0FDEF0FF0080E0724D96E11F0
:101F0D000E0820DA6EDF5068EC09F0074A082AFD4A
:101F1D00EF0FF0500E1E18D8A497EF0FF099EF0F9A
:101F2D00F0BAEF0FF05FEC08F00009D8B4A1EF0F95
:101F3D00F0A3EF0FF099EF0FF0000E556E050E5652
:101F4D006E000E3A6E050E3B6E010E3C6E260E3D7A
:101F5D006E1AEC09F0680E516EE40EE82EFED751A4
:101F6D002EFCD700D0FF00700E1E18D8A4C1EF0FA5
:101F7D00F0C3EF0FF0E0EF0FF05FEC08F00009D8C1
:101F8D00B4CBEF0FF0CDEF0FF0C3EF0FF055C53A17
:101F9D00F556C53BF50D0E3C6E260E3D6E1AEC0941
:101FAD00F0680E516EE40EE82EFED7512EFCD700D0
:101FBD00D0FF00000E1F6EFDEF0FF01F50516E523F
:101FCD006A5250000AD8B4EEEF0FF0FDEF0FF0514A
:101FDD0050000AD8B4CFEF0DF0010AD8B468EF0F56
:101FED00F0030AD8B46EEF0FF0FDEF0FF0120023DF
:101FFD00EF0AF023F0A200FFEF0100510052005351
:10200D0000FFFFFFFFFFFFFFFFFFFFFFFFFFFFFFD2
:10201D00FFFFFFFFFFFFFFFFFFFFFFFFFFFFFFFFC3
:10202D00FFFFFFFFFFFFFFFFFFFFFFFFFFFFFFFFB3
:10203D00FFFFFFFFFFFFFFFFFFFFFFFFFFFFFFFFA3
:10204D00FFFFFFFFFFFFFFFFFFFFFFFFFFFFFFFF93
:10205D00FFFFFFFFFFFFFFFFFFFFFFFFFFFFFFFF83
:10206D00FFFFFFFFFFFFFFFFFFFFFFFFFFFFFFFF73
:10207D00FFFFFFFFFFFFFFFFFFFFFFFFFFFFFFFF63
:10208D00FFFFFFFFFFFFFFFFFFFFFFFFFFFFFFFF53
:10209D00FFFFFFFFFFFFFFFFFFFFFFFFFFFFFFFF43
:1020AD00FFFFFFFFFFFFFFFFFFFFFFFFFFFFFFFF33
:1020BD00FFFFFFFFFFFFFFFFFFFFFFFFFFFFFFFF23
:1020CD00FFFFFFFFFFFFFFFFFFFFFFFFFFFFFFFF13
:1020DD00FFFFFFFFFFFFFFFFFFFFFFFFFFFFFFFF03
:1020ED00FFFFFFFFFFFFFFFFFFFFFFFFFFFFFFFFF3
:1020FD00FFFFFFFFFFFFFFFFFFFFFFC2EF09F0FF35
:10210D00FFFFFFFFFFFFFFFFFFFFFFFF00FFFFFFD1
:10211D00FFFFFFFFFFFFFFFFFFFFFFFFFFFFFFFFC2
:10212D00FFFFFFFFFFFFFFFFFFFFFFFFFFFFFFFFB2
:10213D00FFFFFFFFFFFFFFFFFFFFFFFFFFFFFFFFA2
:10214D00FFFFFFFFFFFFFFFFFFFFFFFFFFFFFFFF92
:1025FD00FFFFFF00526573657420426F6F742100F9
:10260D0053746F7020426F6F74210000FFFFFFFF46
:10261D00FFFFFFFFFFFFFFFFFFFFFFFFFFFFFFFFBD
:10262D00FFFFFFFFFFFFFFFFFFFFFFFFFFFFFFFFAD
:10263D00FFFFFFFFFFFFFFFFFFFFFFFFFFFFFFFF9D
:10264D00FFFFFFFFFFFFFFFFFFFFFFFFFFFFFFFF8D
:03FFFD00FFFFFF04
:020000040001F9
:10000000FFFFFFFFFFFFFFFFFFFFFFFFFFFFFFFF00
:10001000FFFFFFFFFFFFFFFFFFFFFFFFFFFFFFFFF0
:10002000FFFFFFFFFFFFFFFFFFFFFFFFFFFFFFFFE0
:10003000FFFFFFFFFFFFFFFFFFFFFFFFFFFFFFFFD0
:10E0000066550000FFFFFFFFFFFFFFFFFFFFFFFF61
:10E01000FFFFFFFFFFFFFFFFFFFFFFFFFFFFFFFF10
:10E02000FFFFFFFFFFFFFFFFFFFFFFFFFFFFFFFF00
:10E03000FFFFFFFFFFFFFFFFFFFFFFFFFFFFFFFFF0
:10E04000FFFFFFFFFFFFFFFFFFFFFFFFFFFFFFFFE0
:020000040020DA
:020000040030CA
:0A000000ECFFF7FF9FFFFFFFFFFF7B
:00000001FF
