:022000006B88EB
:10200400FFFFFFFFFFFFFFFFFFFFFFFFFFFFFFFFDC
:10201400FFFFFFFFFFFFFFFFFFFFFFFFFFFFFFFFCC
:10202400FFFFFFFFFFFFFFFFFFFFFFFFFFFFFFFFBC
:10203400FFFFFFFFFFFFFFFFFFFFFFFFFFFFFFFFAC
:10204400FFFFFFFFFFFFFFFFFFFFFFFFFFFFFFFF9C
:10205400FFFFFFFFFFFFFFFFFFFFFFFFFFFFFFFF8C
:10206400FFFFFFFFFFFFFFFFFFFFFFFFFFFFFFFF7C
:10207400FFFFFFFFFFFFFFFFFFFFFFFFFFFFFFFF6C
:10208400FFFFFFFFFFFFFFFFFFFFFFFFFFFFFFFF5C
:10209400FFFFFFFFFFFFFFFFFFFFFFFFFFFFFFFF4C
:1020A400FFFFFFFFFFFFFFFFFFFFFFFFFFFFFFFF3C
:1020B400FFFFFFFFFFFFFFFFFFFFFFFFFFFFFFFF2C
:1020C400FFFFFFFFFFFFFFFFFFFFFFFFFFFFFFFF1C
:1020D400FFFFFFFFFFFFFFFFFFFFFFFFFFFFFFFF0C
:1020E400FFFFFFFFFFFFFFFFFFFFFFFFFFFFFFFFFC
:1020F400FFFFFFFFFFFFFFFFFFFFFFFF8DEF10F06C
:10210400FFFFFFFF1EEF16F0FFFFFFFFFFFFFFFFC4
:10211400FFFFFFFFFF00C8EF14F000526573657402
:1021240020426F6F74210053746F7020426F6F747C
:10213400210000FF94EF12F0020E06010019D8A44A
:10214400A6EF10F0A8EF10F0ADEF12F0000E006F44
:10215400000E2D6E000E1B6E000E1A6E000E610036
:10216400A0F3F0FA1A4A1B2AF00E1A24D96E0A0EAA
:102174001B20DA6E000EDF6E1A4A1B2AF00E1A2498
:10218400D96E0A0E1B20DA6E000EDF6E1A4A1B2A65
:10219400F00E1A24D96E0A0E1B20DA6E000EDF6EC2
:1021A4001A4A1B2AF00E1A24D96E0A0E1B20DA6E64
:1021B400000EDF6E1A4A1B2AF00E1A24D96E0A0E7C
:1021C4001B20DA6E000EDF6E1A4A1B2A78EF11F01C
:1021D400410E2D6EF00E1A24D96E0A0E1B20DA6EF3
:1021E400000EDF6E1A4A1B2AF00E1A24396E0A0EEC
:1021F4001B203A6E600E3B6E050E3C6E000E3E6E6A
:10220400080E3D6E4DEC16F0080E1A26000E1B2229
:10221400A9EF11F0420E2D6EF00E1A24D96E0A0E9B
:102224001B20DA6E000EDF6E1A4A1B2AF00E1A24E7
:10223400D96E0A0E1B20DA6E610088F4DFF41A4AA4
:102244001B2AF00E1A24D96E0A0E1B20DA6E2350B4
:10225400DF6E1A4A1B2AA9EF11F0430E2D6EF00E01
:102264001A24D96E0A0E1B20DA6E000EDF6E1A4A8B
:102274001B2AF00E1A24D96E0A0E1B20DA6E610096
:1022840080F4DFF41A4A1B2AF00E1A24D96E0A0EBF
:102294001B20DA6E2150DF6E2BEF11F0440E2D6EF1
:1022A400ECEF10F0500E2D6EF00E1A24D96E0A0EBB
:1022B4001B20DA6E000EDF6E1A4A1B2AF00E1A2457
:1022C400D96E0A0E1B20DA6EAA0EDF6E1A4A1B2A7A
:1022D400F00E1A24D96E0A0E1B20DA6EAA0EDF6ED7
:1022E4002BEF11F0700E2D6E56EF11F00551506E5C
:1022F400516A5150000AD8B482EF11F0A9EF11F0DD
:102304005050410AD8B4EAEF10F0030AD8B40CEFE5
:1023140011F0010AD8B42FEF11F0070AD8B450EF26
:1023240011F0140AD8B454EF11F0010AD8B4A9EF8B
:1023340011F0030AD8B4A9EF11F0010AD8B4A9EF37
:1023440011F0230AD8B474EF11F0A9EF11F02D5055
:10235400D8B4AFEF11F0B1EF11F0ADEF12F0FA0E07
:102364001A24186EFF0E1B20196E020E6100A0F3D2
:10237400F0FA22EEF1F2610060F4DFF418C550F5D2
:1023840019C551F551C550F5516A610040F5F2FA8D
:10239400210E6100A0F3F3FAA10E6100A0F3F4FA98
:1023A4002DC550F5800E5012610040F5F5FA000E6F
:1023B4003A6E000E396E800E3C6E050E3B6EF10EC9
:1023C4003D6E0A0E3E6E050E18243F6E000E192057
:1023D400406E360E416E050E426E350E436E050E8E
:1023E400446E07EC14F0F00E1A24D96E0A0E1B206A
:1023F400DA6E6100D8F4DFF41A4A1B2AF00E1A24AC
:10240400D96E0A0E1B20DA6E6100D4F4DFF41A4A86
:102414001B2AF00E1A24D96E0A0E1B20DA6E030E44
:10242400DF6E1A4A1B2A2E2AADEF12F0000E176E29
:10243400000E166E15EF12F01A50165C1B5017584A
:10244400D8B027EF12F029EF12F040EF12F076EC3B
:1024540017F00009D8B431EF12F033EF12F0ADEFFA
:1024640012F0F00E1624D96E0A0E1720DA6EDF5021
:102474007AEC16F0164A172AADEF12F0500E2D180A
:10248400D8A447EF12F049EF12F06AEF12F076EC9D
:1024940017F00009D8B451EF12F053EF12F049EFDE
:1024A40012F0000E596E050E5A6E000E396E050EAE
:1024B4003A6E1F0E3B6E210E3C6ECFEC16F0680E8A
:1024C400506EE40EE82EFED7502EFCD700D0FF004D
:1024D400700E2D18D8A471EF12F073EF12F090EF74
:1024E40012F076EC17F00009D8B47BEF12F07DEF10
:1024F40012F073EF12F059C539F55AC53AF52B0E9F
:102504003B6E210E3C6ECFEC16F0680E506EE40E5E
:10251400E82EFED7502EFCD700D0FF00000E2E6E02
:10252400ADEF12F02E50506E516A5150000AD8B4DB
:102534009EEF12F0ADEF12F05050000AD8B49EEFA7
:1025440010F0010AD8B418EF12F0030AD8B41EEF41
:1025540012F0ADEF12F01200536E030E2C18D8A433
:10256400B6EF12F0B8EF12F06FEF13F0040E2C1860
:10257400D8A4BFEF12F0C1EF12F06FEF13F0050E05
:102584002C18D8A4C8EF12F0CAEF12F06FEF13F0B2
:10259400060E2C18D8A4D1EF12F0D3EF12F06FEF7F
:1025A40013F0020E5318D8A4DAEF12F0DCEF12F095
:1025B4006FEF13F0000E2C6E6FEF13F0020E531832
:1025C400D8A4E7EF12F0E9EF12F0A8EF13F0000E31
:1025D400156E000E146E2C2AA8EF13F053C512F5D5
:1025E400136AEDEF12F05350516E506A50501212AC
:1025F40051501312135009E1030E125CD8A005EFD9
:1026040013F007EF13F011EF13F01204040E135834
:10261400D8A00FEF13F011EF13F0EDEF12F0000E4E
:102624002C6EA8EF13F053C52BF5200E2B18D8B43D
:102634001EEF13F020EF13F0EDEF12F011EF13F093
:1026440053C52AF5230E2A18D8B42BEF13F02DEF17
:1026540013F0EDEF12F02A28D8B433EF13F035EF6E
:1026640013F0EDEF12F011EF13F053C529F5400EFE
:1026740029603FEF13F041EF13F043EF13F011EF34
:1026840013F0000E116E000E106EEDEF12F0000E3E
:102694001024D96E0A0E1120DA6E61004CF5DFF4B5
:1026A400104A112A1250105C13501158D8A05DEF33
:1026B40013F05FEF13F0A8EF13F0EDEF12F053C532
:1026C40028F5EDEF12F053C527F5EDEF12F053C5E1
:1026D40026F50A0E2C6EA8EF13F02C50506E516A9A
:1026E4005150000AD8B479EF13F0A8EF13F050500A
:1026F400000AD8B4E0EF12F0010AD8B4F0EF12F0F7
:10270400030AD8B4F5EF12F0010AD8B415EF13F0A8
:10271400070AD8B422EF13F0010AD8B437EF13F044
:10272400030AD8B449EF13F0010AD8B461EF13F0E7
:102734000F0AD8B465EF13F0010AD8B469EF13F0A7
:10274400030AD8B4A8EF13F0A8EF13F00A0E2C185C
:10275400D8A4AFEF13F0B1EF13F006EF14F00601B5
:102764000051D8A4B8EF13F0BAEF13F006EF14F049
:10277400020E006F12C501F613C502F62BC503F64F
:102784002AC504F629C505F6000E526ED9EF13F0DA
:10279400000E5224D96EDA6A0A0EDA22060E522488
:1027A400E16EE26A060EE222DFC4E7F4522A5250D6
:1027B400506E516A1250505C13505158D8A0E5EF36
:1027C40013F0E7EF13F0CAEF13F0000E3A6E000EA9
:1027D400396E800E3C6E050E3B6E010E3D6E060E8C
:1027E4003E6E050E060101253F6E000E0221406E6D
:1027F400F60E416E060E426EF70E436E060E446EE2
:1028040007EC14F0000E2C6E120039C54EF53AC5D3
:102814004FF5000E4D6E000E4C6E46EF14F04C500A
:102824003D24D96E4D503E20DA6EDF50456E455042
:10283400466E476A46504E1A47504F1A000E4B6E6A
:10284400000E4A6E4EA029EF14F02BEF14F034EF73
:1028540014F0D8904F324E323B504E1A3C504F1A1F
:1028640037EF14F0D8904F324E324A4A4B2A4B502D
:1028740009E1080E4A5CD8A042EF14F044EF14F0CA
:1028840024EF14F04C4A4D2A3F504C5C40504D58B4
:10289400D8A04FEF14F051EF14F011EF14F04EC51F
:1028A40049F54F50486E610004F5D9F4610008F50C
:1028B400DAF4610020F5DFF461000CF5D9F461006D
:1028C40010F5DAF4610024F5DFF41200000E32246E
:1028D400D96EDA6A070EDA22000EDF6E0201FEA755
:1028E40076EF14F078EF14F08CEF14F0000E32242D
:1028F400D96EDA6A070EDA220701DF8202D88CEF7A
:1029040014F00500FA6E5650FD6E5750FE6EFF6AC5
:10291400FA5012000201FEA392EF14F094EF14F0A7
:10292400A8EF14F0000E3224D96EDA6A070EDA2208
:102934000701DF8402D8A8EF14F00500FA6E5450A2
:10294400FD6E5550FE6EFF6AFA501200000E3224DE
:10295400D96EDA6A070EDA22DF50D8B4B4EF14F075
:10296400B6EF14F0C5EF14F002D8C3EF14F005006D
:10297400FA6E05016851FD6E6951FE6EFF6AFA50E8
:102984001200C7EF14F02DEC17F012007A0EF66E59
:102994002F0EF76E000EF86E01EE59F110EE05F0F1
:1029A4000900F5C4EEF4E550E150FAE102EEF0F26C
:1029B40010EE04F1EE6AE550E150FCE1E250FAE178
:1029C40002EE00F2F00EEE6AE806FDE102EE00F11E
:1029D40010EEFFF0EE6AE550E150FCE1E250FAE15E
:1029E40002EE00F010EEFFF0EE6AE550E150FCE17B
:1029F400E250FAE101EE00F310EEFFF0EE6AE5506A
:102A0400E150FCE1E250FAE101EE00F2F90EEE6A67
:102A1400E806FDE101EE60F1080EEE6AE806FDE16C
:102A240001EE10F1270EEE6AE806FDE10401080E3E
:102A34005D6F210E5E6F000E5F6F0001ECEF15F00D
:102A4400000EC26E000EC16E000EBE6E000EBF6E92
:102A5400000EC06E070ECA6EC668FE0EC76EDF0E8D
:102A6400C86EC96804011869DF0E106FFE0E086F86
:102A7400070E206FDF0E006F000E196F000E216F1E
:102A8400000E096F000E016F000E116F000E02019F
:102A9400896F000E886F000E876F000E866F000E20
:102AA4000401226F000E026F000E0A6F000E126FF7
:102AB400000E1A6F03690B6913691B69070E236FF4
:102AC40004690C6914691C690F0E246F050E020158
:102AD4007A6F2C0E166F1200AB90D00E396E280E42
:102AE4003A6EA6EC17F0AB92E80E396E2D0E3A6EE4
:102AF400A1EC17F0000E0201F16F000EF36F000E4F
:102B0400F56FB00EF76F800EF86F000EF96F440E7C
:102B1400FA6F000EFB6F000EFC6F000EFD6F000ECF
:102B2400FE6F000EFF6F820E396E2F0E3A6EB0EC00
:102B340017F0800E396E2F0E3A6EABEC17F0740E50
:102B4400396E2F0E3A6EB5EC17F0000E2F6E000E94
:102B5400346E000E336E5868000E326E000E316E05
:102B6400000E306EAB801200FC0E396EFF0E3A6E12
:102B74003F0E3B6E000E3C6E15EC17F039C522F586
:102B84003AC523F5FE0E396EFF0E3A6E3F0E3B6ECC
:102B9400000E3C6E15EC17F039C520F53AC521F549
:102BA400000E1E6E000E1F6E000E1C6E000E1D6EBB
:102BB400010E0501636F020E646F000E656F000E57
:102BC400666F000E676F000E616F030E606F040E78
:102BD400626F12008CEC17F097EC17F0D68EB6ECFF
:102BE40015F0244A252A42EC17F025BE03EF16F00F
:102BF400310E245C750E2558D8A003EF16F005EFAE
:102C040016F0F3EF15F0000E256E000E246EBFB023
:102C14000EEF16F011EF16F0010E12EF16F0000E83
:102C2400FF0A05016F6FBF506F19FE0B6F19BF6E5E
:102C3400F3EF15F08DEF10F06100E8F337F5610064
:102C4400ECF338F5ABA229EF16F02BEF16F036EFC4
:102C540016F0BBA230EF16F032EF16F036EF16F096
:102C6400F4EC16F046EF16F0ABA03BEF16F03DEF98
:102C740016F046EF16F0BBA042EF16F044EF16F044
:102C840046EF16F068EC14F06100E0F4FBF4610028
:102C9400DCF4FAF411003BC542F53CC543F539C5F3
:102CA40040F53AC541F56CEF16F0610008F5D9F42A
:102CB40061000CF5DAF4DF503F6E424A432A6100AA
:102CC40000F5D9F4610004F5DAF46100FCF4DFF4F2
:102CD400404A412A3D06D8A03E063D2806E13E284A
:102CE400D8A477EF16F079EF16F057EF16F012002C
:102CF400396E5850D8B481EF16F083EF16F07BEF9D
:102D040016F0ABB288EF16F08AEF16F08FEF16F0DC
:102D14006100E4F4EFF2A5EF16F0AB92000E342458
:102D2400D96EDA6A080EDA226100E4F4DFF4342A98
:102D34003428D8A4A0EF16F0A2EF16F0A4EF16F0F2
:102D4400000E346E5806AB8212003050D8B4ADEF8A
:102D540016F0AFEF16F0A7EF16F0000E3124D96E7F
:102D6400DA6A070EDA22DF502F6E000E3124D96E94
:102D7400DA6A090EDA22DF50396E312A3128D8A4F2
:102D8400C6EF16F0C8EF16F0CAEF16F0000E316E5B
:102D9400AB903006AB80395012003BC53DF53CC5C5
:102DA4003EF539C53FF53AC540F56100F4F4F6F453
:102DB4006100F8F4F7F43D4A3E2AF86A6100FCF435
:102DC400D9F4610000F5DAF43F4A402A0800F5C45A
:102DD400DFF4DF50D8A4F1EF16F0F3EF16F0D7EFDD
:102DE40016F012005828D8B4FAEF16F0FCEF16F0DB
:102DF40013EF17F0000E3324D96EDA6A080EDA22C4
:102E0400DF500201EF6F332A3328D8A40CEF17F0F8
:102E14000EEF17F010EF17F0000E336E582A14EF70
:102E240017F0AB9212006100ECF4F8F46100E8F4DE
:102E3400F7F46100E4F4F6F409006100D4F33FF51B
:102E440008006100D4F340F540503D6E3F50396EA8
:102E54003DC53AF51200000E3224D96EDA6A090E25
:102E6400DA22EDC2DFF4322A3228D8A43CEF17F07C
:102E74003EEF17F040EF17F0000E326E302A1200CA
:102E840081EC17F00009D8B44AEF17F04CEF17F0B3
:102E940053EF17F0A7EC16F005016E6F6E51AEEC10
:102EA40012F09CEC10F01200000E0001606F000E96
:102EB400616F000E636F000E646F000E656F000E8D
:102EC400666F000E676F000E686F1200600E0001DF
:102ED400AD6F000EAF6F000EB36F060EB16F000E34
:102EE400B06F000EAC6F12005850D8A47CEF17F0EE
:102EF4007FEF17F0010E80EF17F0000E1200305034
:102F0400D8A487EF17F08AEF17F0010E8BEF17F0B4
:102F1400000E120097EC17F056EC17F022EC15F0A7
:102F240068EC17F06EEC15F01200D69AD69E000EDF
:102F340004015F6F210E5E6F080E5D6F120039C5CC
:102F44006AF53AC56BF5120039C56CF53AC56DF5ED
:102F5400120039C554F53AC555F5120039C556F570
:102F64003AC557F5120039C568F53AC569F5120036
:102F74002DEC17F012000005000F23FF12001200C1
:102F8400FFFFFFFFFFFFFFFFFFFFFFFFFFFFFFFF4D
:102F9400FFFFFFFFFFFFFFFFFFFFFFFFFFFFFFFF3D
:102FA400FFFFFFFFFFFFFFFFFFFFFFFFFFFFFFFF2D
:102FB400FFFFFFFFFFFFFFFFFFFFFFFFFFFFFFFF1D
:020000040020DA
:020000040030CA
:0A000000ECFFF7FF9FFFFFFFFFFF7B
:00000001FF
